:100000000C942A000C943F000C943F000C943F0089
:100010000C943F000C943F000C943F000C943F0064
:100020000C943F000C943F000C943F000C943F0054
:100030000C943F000C943F000C943F000C943F0044
:100040000C943F000C943F000C943F000C943F0034
:100050000C943F0011241FBECFE5D4E0DEBFCDBF1E
:1000600011E0A0E6B0E0E4E5FAE302C005900D92ED
:10007000A836B107D9F70E94DC120C94281D0C9405
:100080000000EF92FF920F931F937B018C0120E001
:1000900030E040E05FE40E94ED0388238CF0C8016B
:1000A000B70120E030E040E05FE40E94B9010E9427
:1000B000AB049B01AC01205030404040504806C08A
:1000C000C801B7010E94AB049B01AC01B901CA0190
:1000D0001F910F91FF90EF900895A0E0B0E0E3E74B
:1000E000F0E00C94AC1CDC012B01FA019C919230E5
:1000F00008F439C1EB018881823008F433C19430AF
:1001000069F4843009F02FC111969C91119789816F
:10011000981709F428C1A0E6B0E025C1843009F49D
:1001200021C18230A9F4923009F01DC19A01AD01BC
:1001300088E0EA010990AE01E90109929E0181502F
:10014000C1F7E201898111969C918923818308C1BD
:10015000923009F407C112962D903C901397EB0151
:100160008A819B811496AD90BD90CD90DC901797BD
:10017000EC80FD800E811F819101281B390BB90194
:1001800037FF04C066277727621B730B6032710547
:100190000CF061C0121613066CF537014801062EEB
:1001A00004C096948794779467940A94D2F721E0D8
:1001B00030E040E050E004C0220F331F441F551FC1
:1001C0006A95D2F721503040404050402E213F21C7
:1001D00040235123211531054105510521F021E02E
:1001E00030E040E050E079018A01E628F72808294C
:1001F00019293CC0232BD1F1260E371E35014601AB
:10020000062E04C096948794779467940A94D2F744
:1002100021E030E040E050E004C0220F331F441FD3
:10022000551F6A95D2F721503040404050402A2156
:100230003B214C215D21211531054105510521F05E
:1002400021E030E040E050E059016A01A628B728DB
:10025000C828D9280BC0821593052CF01C01AA24AC
:10026000BB24650103C0EE24FF24870111969C91F5
:10027000D20111968C91981709F445C0992339F051
:10028000A80197012A193B094C095D0906C0A6017E
:1002900095012E193F09400B510B57FD08C01182E3
:1002A0003382228224833583468357831DC081E0B5
:1002B00081833382228288279927DC01821B930B5A
:1002C000A40BB50B84839583A683B7830DC0220F3F
:1002D000331F441F551F24833583468357838281F0
:1002E000938101979383828324813581468157814D
:1002F000DA01C9010197A109B1098F5F9F4FAF4F83
:10030000BF4328F30BC0918333822282EA0CFB1C8B
:100310000C1D1D1DE482F5820683178383E0808314
:10032000248135814681578157FF1AC0C901AA2708
:1003300097FDA095BA2F81709070A070B0705695FF
:10034000479537952795822B932BA42BB52B848328
:100350009583A683B7838281938101969383828359
:10036000DF0101C0D201CD01CDB7DEB7E2E10C94CF
:10037000C81CA0E2B0E0EFEBF1E00C94B81C69837C
:100380007A838B839C832D833E834F835887E9E058
:10039000EE2EF12CEC0EFD1ECE010196B7010E944F
:1003A0009C068E010F5E1F4FCE010596B8010E947C
:1003B0009C068A8991E089278A8BC701B801AE0122
:1003C000475E5F4F0E946D000E94C705A096E6E061
:1003D0000C94D41CA0E2B0E0E0EFF1E00C94B81C67
:1003E00069837A838B839C832D833E834F835887D5
:1003F000F9E0EF2EF12CEC0EFD1ECE010196B701B7
:100400000E949C068E010F5E1F4FCE010596B8011B
:100410000E949C06C701B801AE01475E5F4F0E9473
:100420006D000E94C705A096E6E00C94D41CA0E2E3
:10043000B0E0EDE1F2E00C94AC1C69837A838B832D
:100440009C832D833E834F835887CE010196BE0146
:10045000675F7F4F0E949C06CE010596BE016F5ECE
:100460007F4F0E949C069985923088F0898982305E
:10047000C8F0943019F4823051F404C0843029F467
:10048000923081F480E690E0C6C0923049F420E0DA
:100490009A858A89981321E02A87CE010996BBC0E4
:1004A000823049F420E09A858A89981321E02A8BCA
:1004B000CE014196B0C02D843E844F8458886D880B
:1004C0007E888F88988CEE24FF248701AA24BB2481
:1004D000650140E050E060E070E0E0E0F0E0C10184
:1004E00081709070892BE9F0E60CF71C081D191D2E
:1004F0009A01AB012A0D3B1D4C1D5D1D80E090E073
:10050000A0E0B0E0E614F7040805190520F481E046
:1005100090E0A0E0B0E0BA01A901480F591F6A1F9E
:100520007B1FAA0CBB1CCC1CDD1C97FE08C081E005
:1005300090E0A0E0B0E0A82AB92ACA2ADB2A3196C6
:10054000E032F10549F0660C771C881C991C569422
:10055000479437942794C3CFFA85EA892B893C893D
:100560008B859C85280F391F2E5F3F4F17C0CA010E
:1005700081709070892B61F016950795F794E79438
:1005800080E090E0A0E0B0E8E82AF92A0A2B1B2BD3
:1005900076956795579547952F5F3F4F77FDE7CF46
:1005A0000CC0440F551F661F771F17FD4160EE0CEE
:1005B000FF1C001F111F21503040403090E05907B0
:1005C00090E0690790E4790760F32B8F3C8FDB01A3
:1005D000CA018F779070A070B07080349105A1052A
:1005E000B10561F447FD0AC0E114F10401051105EC
:1005F00029F0405C5F4F6F4F7F4F40781A8EFE1797
:1006000011F081E08A8F4D8F5E8F6F8F78A383E02A
:10061000898FCE0149960E94C705A096E2E10C940D
:10062000C81CA8E1B0E0E7E1F3E00C94B41C6983D6
:100630007A838B839C832D833E834F835887B9E0D5
:10064000EB2EF12CEC0EFD1ECE010196B7010E949F
:100650009C068E010F5E1F4FCE010596B8010E94C9
:100660009C062985223008F47EC03989323010F486
:10067000B8017CC08A859A8989278A87243011F03D
:10068000223031F4231709F06EC060E670E06EC0CE
:10069000343039F41D861E861F86188A1C861B86F8
:1006A00004C0323021F484E08987B7015FC02B8514
:1006B0003C858B899C89281B390B3C872B87ED84D3
:1006C000FE840F851889AD88BE88CF88D88CEA143F
:1006D000FB040C051D0540F4EE0CFF1C001F111F50
:1006E000215030403C872B8720E030E040E050E054
:1006F00080E090E0A0E0B0E460E070E0EA14FB0489
:100700000C051D0540F0282B392B4A2B5B2BEA18D2
:10071000FB080C091D09B695A79597958795EE0CD2
:10072000FF1C001F111F6F5F7F4F6F31710531F785
:10073000DA01C9018F779070A070B0708034910594
:10074000A105B10561F427FD0AC0E114F10401051A
:10075000110529F0205C3F4F4F4F5F4F20782D87C8
:100760003E874F87588BBE01675F7F4FCB010E944A
:10077000C7056896EAE00C94D01CA8E1B0E0E3EC71
:10078000F3E00C94B81C69837A838B839C832D835C
:100790003E834F83588789E0E82EF12CEC0EFD1E36
:1007A000CE010196B7010E949C068E010F5E1F4F7D
:1007B000CE010596B8010E949C068985823040F0E2
:1007C0008989823028F0C701B8010E94140701C04E
:1007D0008FEF6896E6E00C94D41CA8E1B0E0E3EF5C
:1007E000F3E00C94B81C69837A838B839C832D83FC
:1007F0003E834F83588789E0E82EF12CEC0EFD1ED6
:10080000CE010196B7010E949C068E010F5E1F4F1C
:10081000CE010596B8010E949C068985823040F081
:100820008989823028F0C701B8010E94140701C0ED
:100830008FEF6896E6E00C94D41CA8E1B0E0E3E208
:10084000F4E00C94B81C69837A838B839C832D839A
:100850003E834F83588789E0E82EF12CEC0EFD1E75
:10086000CE010196B7010E949C068E010F5E1F4FBC
:10087000CE010596B8010E949C068985823040F021
:100880008989823028F0C701B8010E94140701C08D
:1008900081E06896E6E00C94D41CA8E0B0E0E3E5C3
:1008A000F4E00C94B51C9B01AC0183E08983DA0170
:1008B000C9018827B7FD83959927AA27BB27B82E9A
:1008C000211531054105510519F482E089833AC0AB
:1008D0008823A9F0203080E0380780E0480780E8CE
:1008E000580729F460E070E080E09FEC30C0EE240F
:1008F000FF248701E21AF30A040B150B02C07901E9
:100900008A018EE1C82ED12CDC82CB82ED82FE8260
:100910000F831887C801B7010E9478050197181640
:10092000190684F4082E04C0EE0CFF1C001F111FD2
:100930000A94D2F7ED82FE820F831887C81AD90A6B
:10094000DC82CB82BA82CE0101960E94C70528962E
:10095000E9E00C94D11CACE0B0E0E1EBF4E00C94E5
:10096000BC1C69837A838B839C83CE010196BE0174
:100970006B5F7F4F0E949C068D81823061F18230D7
:1009800050F1843021F48E81882351F12EC02F81C3
:10099000388537FD20C06E812F3131051CF066236C
:1009A000F9F023C08EE190E0821B930B29853A85F4
:1009B0004B855C8504C056954795379527958A9554
:1009C000D2F76623B1F050954095309521953F4F71
:1009D0004F4F5F4F0EC020E030E040E050E009C0D4
:1009E0002FEF3FEF4FEF5FE704C020E030E040E043
:1009F00050E8B901CA012C96E2E00C94D81CA8E09A
:100A0000B0E0E5E0F5E00C94B41C7B018C016115CD
:100A100071058105910519F482E0898360C083E046
:100A200089838EE1C82ED12CDC82CB82ED82FE82BE
:100A30000F831887C801B7010E947805FC01319720
:100A4000F7FF3BC0222733272E1B3F0B57016801BE
:100A5000022E04C0D694C794B794A7940A94D2F7F0
:100A600040E050E060E070E081E090E0A0E0B0E0C5
:100A700004C0880F991FAA1FBB1F2A95D2F70197A0
:100A8000A109B1098E219F21A023B1230097A105BF
:100A9000B10521F041E050E060E070E04A295B29B7
:100AA0006C297D294D835E836F8378878EE190E08A
:100AB0008E1B9F0B9C838B8312C0309781F00E2E70
:100AC00004C0EE0CFF1C001F111F0A94D2F7ED8228
:100AD000FE820F831887CE1ADF0ADC82CB821A824D
:100AE000CE0101960E94C7052896EAE00C94D01C1E
:100AF000EF92FF920F931F937B018C0180E0E81629
:100B000080E0F80681E0080780E0180788F48FEF9E
:100B1000E816F1040105110531F028F088E090E0B5
:100B2000A0E0B0E017C080E090E0A0E0B0E012C02C
:100B300080E0E81680E0F80680E0080781E018070A
:100B400028F088E190E0A0E0B0E004C080E190E00F
:100B5000A0E0B0E020E230E040E050E0281B390B9C
:100B60004A0B5B0B04C016950795F794E7948A959A
:100B7000D2F7F701E859FF4F8081281B310941095D
:100B80005109C9011F910F91FF90EF900895DF92D5
:100B9000EF92FF920F931F93FC01E480F580068192
:100BA0001781D1808081823048F480E090E0A0E11C
:100BB000B0E0E82AF92A0A2B1B2BA5C0843009F4DF
:100BC0009FC0823021F4EE24FF24870105C0E11488
:100BD000F1040105110519F4E0E0F0E096C062812E
:100BE00073819FEF623879070CF05BC022E83FEF1A
:100BF000261B370B2A3131052CF020E030E040E095
:100C000050E02AC0B801A701022E04C0769567956E
:100C1000579547950A94D2F781E090E0A0E0B0E0C4
:100C200004C0880F991FAA1FBB1F2A95D2F70197EE
:100C3000A109B1098E219F21A023B1230097A1050D
:100C4000B10521F081E090E0A0E0B0E09A01AB01B5
:100C5000282B392B4A2B5B2BDA01C9018F77907037
:100C6000A070B07080349105A105B10539F427FF5B
:100C700009C0205C3F4F4F4F5F4F04C0215C3F4F86
:100C80004F4F5F4FE0E0F0E02030A0E03A07A0E0F7
:100C90004A07A0E45A0710F0E1E0F0E079018A0188
:100CA00027C06038710564F5FB01E158FF4FD8019A
:100CB000C7018F779070A070B07080349105A10546
:100CC000B10539F4E7FE0DC080E490E0A0E0B0E0AB
:100CD00004C08FE390E0A0E0B0E0E80EF91E0A1F28
:100CE0001B1F17FF05C016950795F794E7943196DB
:100CF00087E016950795F794E7948A95D1F705C094
:100D0000EE24FF248701EFEFF0E06E2F6795662752
:100D10006795902F9F77D794DD24D7948E2F869553
:100D2000492F462B582F5D29B701CA011F910F91FA
:100D3000FF90EF90DF900895FC01DB01408151812D
:100D40002281622F6F7770E0221F2227221F93815A
:100D5000892F880F822B282F30E0991F9927991F00
:100D600011969C93119721153105A9F5411551054F
:100D70006105710511F482E037C082E89FEF139698
:100D80009C938E9312979A01AB0167E0220F331F59
:100D9000441F551F6A95D1F783E08C930DC0220F35
:100DA000331F441F551F12968D919C9113970197E5
:100DB00013969C938E931297203080E0380780E042
:100DC000480780E4580758F314962D933D934D93AC
:100DD0005C93179708952F3F310579F4411551051C
:100DE0006105710519F484E08C93089564FF03C0D4
:100DF00081E08C9312C01C9210C02F573040139684
:100E00003C932E93129783E08C9387E0440F551FF9
:100E1000661F771F8A95D1F7706414964D935D9382
:100E20006D937C93179708951F93DC01FB019C91B0
:100E3000923008F447C08081823008F443C0943077
:100E400051F411961C91843099F58181682F70E0DE
:100E5000611B71093FC0843021F0923031F482303F
:100E6000B9F18181882389F12DC011961C911197C8
:100E70008230F1F081811817D9F412962D913C91AE
:100E80001397828193818217930794F0281739076B
:100E9000BCF014968D919D910D90BC91A02D248154
:100EA000358146815781281739074A075B0718F4AF
:100EB000112341F00AC082179307A407B50740F435
:100EC000112319F061E070E005C06FEF7FEF02C001
:100ED00060E070E0CB011F910895DF93CF93CDB711
:100EE000DEB7E7E2F0E080E48083E6E2F0E087E866
:100EF0008083CF91DF910895DF93CF930F92CDB789
:100F0000DEB78983898187708983A7E2B0E0E7E251
:100F1000F0E08081982F987F8981892B8C93A6E2BD
:100F2000B0E0E6E2F0E0808180648C93E6E2F0E0FD
:100F30008081882F90E0807490700097B9F7E4E288
:100F4000F0E0808191810F90CF91DF910895DF9340
:100F5000CF93CDB7DEB7A4E3B0E0E4E3F0E0808167
:100F600081608C93CF91DF910895DF93CF93CDB7BC
:100F7000DEB7A5E3B0E0E5E3F0E080818E7F8C93FF
:100F8000CF91DF910895DF93CF93CDB7DEB7A5E37F
:100F9000B0E0E5E3F0E0808181608C93CF91DF9158
:100FA0000895DF93CF9300D000D0CDB7DEB789830B
:100FB0006A838981282F30E03C832B838B819C813D
:100FC00081309105D1F02B813C81223031052CF408
:100FD0008B819C81009761F01EC02B813C81223067
:100FE000310581F08B819C818330910581F013C0A4
:100FF000EAE3F0E08A8180830EC0E7E3F0E08A81D3
:10100000808309C0E4E3F0E08A81808304C0E1E3E7
:10101000F0E08A8180830F900F900F900F90CF9116
:10102000DF910895DF93CF9300D000D0CDB7DEB726
:1010300089836A838981282F30E03C832B838B81CD
:101040009C8181309105D1F02B813C81223031058A
:101050002CF48B819C81009761F01EC02B813C8118
:101060002230310581F08B819C818330910581F0A4
:1010700013C0EBE3F0E08A8180830EC0E8E3F0E088
:101080008A81808309C0E5E3F0E08A81808304C01F
:10109000E2E3F0E08A8180830F900F900F900F9031
:1010A000CF91DF910895DF93CF9300D000D00F92BE
:1010B000CDB7DEB789838981282F30E03C832B832D
:1010C0008B819C8181309105D1F02B813C81223034
:1010D00031052CF48B819C81009761F01FC02B811E
:1010E0003C812230310581F08B819C8183309105D8
:1010F00081F014C0EBE3F0E090819A8310C0E8E344
:10110000F0E020812A830BC0E5E3F0E030813A83F0
:1011100006C0E2E3F0E080818A8301C002C09A81C8
:101120009D838D810F900F900F900F900F90CF9116
:10113000DF910895DF93CF93CDB7DEB727970FB632
:10114000F894DEBF0FBECDBF89836A834B838A814B
:10115000882309F074C08B81282F30E03F832E83D1
:101160008E819F818130910559F12E813F812230FE
:1011700031052CF48E819F81009769F0D2C02E81B9
:101180003F812230310589F18E819F818330910525
:1011900009F440C0C6C0AAE3B0E0EAE3F0E0808111
:1011A000482F8981282F30E081E090E0022E02C094
:1011B000880F991F0A94E2F7809584238C93B1C01D
:1011C000A7E3B0E0E7E3F0E08081482F8981282F92
:1011D00030E081E090E0022E02C0880F991F0A944F
:1011E000E2F7809584238C939CC0A4E3B0E0E4E311
:1011F000F0E08081482F8981282F30E081E090E065
:10120000022E02C0880F991F0A94E2F7809584236A
:101210008C9387C0A1E3B0E0E1E3F0E08081482F48
:101220008981282F30E081E090E0022E02C0880FF3
:10123000991F0A94E2F7809584238C9372C08A8167
:10124000813009F06EC08B81282F30E03D832C83E4
:101250008C819D818130910549F12C813D81223025
:1012600031052CF48C819D81009761F05AC02C814E
:101270003D812230310571F18C819D818330910552
:10128000E9F14FC0AAE3B0E0EAE3F0E08081482F43
:101290008981282F30E081E090E0022E02C0880F83
:1012A000991F0A94E2F7842B8C933BC0A7E3B0E02C
:1012B000E7E3F0E08081482F8981282F30E081E04A
:1012C00090E0022E02C0880F991F0A94E2F7842B47
:1012D0008C9327C0A4E3B0E0E4E3F0E08081482FE2
:1012E0008981282F30E081E090E0022E02C0880F33
:1012F000991F0A94E2F7842B8C9313C0A1E3B0E00A
:10130000E1E3F0E08081482F8981282F30E081E0FF
:1013100090E0022E02C0880F991F0A94E2F7842BF6
:101320008C9327960FB6F894DEBF0FBECDBFCF913A
:10133000DF910895DF93CF93CDB7DEB727970FB630
:10134000F894DEBF0FBECDBF89836A834B838A8149
:10135000813009F06FC08B81282F30E03F832E83CE
:101360008E819F818130910549F12E813F8122300C
:1013700031052CF48E819F81009761F0D2C02E81BF
:101380003F812230310571F18E819F81833091053B
:10139000E9F1C7C0ABE3B0E0EBE3F0E08081482FB8
:1013A0008981282F30E081E090E0022E02C0880F72
:1013B000991F0A94E2F7842B8C93B3C0A8E3B0E0A2
:1013C000E8E3F0E08081482F8981282F30E081E038
:1013D00090E0022E02C0880F991F0A94E2F7842B36
:1013E0008C939FC0A5E3B0E0E5E3F0E08081482F57
:1013F0008981282F30E081E090E0022E02C0880F22
:10140000991F0A94E2F7842B8C938BC0A2E3B0E07F
:10141000E2E3F0E08081482F8981282F30E081E0ED
:1014200090E0022E02C0880F991F0A94E2F7842BE5
:101430008C9377C08A81882309F073C08B81282F11
:1014400030E03D832C838C819D818130910559F161
:101450002C813D81223031052CF48C819D810097B7
:1014600069F05FC02C813D812230310589F18C818A
:101470009D818330910509F440C053C0ABE3B0E0D7
:10148000EBE3F0E08081482F8981282F30E081E074
:1014900090E0022E02C0880F991F0A94E2F780950F
:1014A00084238C933EC0A8E3B0E0E8E3F0E08081C1
:1014B000482F8981282F30E081E090E0022E02C081
:1014C000880F991F0A94E2F7809584238C9329C092
:1014D000A5E3B0E0E5E3F0E08081482F8981282F83
:1014E00030E081E090E0022E02C0880F991F0A943C
:1014F000E2F7809584238C9314C0A2E3B0E0E2E38A
:10150000F0E08081482F8981282F30E081E090E051
:10151000022E02C0880F991F0A94E2F78095842357
:101520008C9327960FB6F894DEBF0FBECDBFCF9138
:10153000DF910895DF93CF93CDB7DEB727970FB62E
:10154000F894DEBF0FBECDBF8A836B838B81282FBB
:1015500030E03E832D834D815E814130510559F14C
:101560008D819E818230910534F42D813E8121153B
:10157000310569F05CC04D815E814230510579F1E1
:101580008D819E818330910509F43DC050C0E9E30F
:10159000F0E08081282F30E08A81882F90E0A90137
:1015A00002C0559547958A95E2F7CA0181708983F3
:1015B00059815C833DC0E6E3F0E08081282F30E074
:1015C0008A81882F90E0A90102C0559547958A9598
:1015D000E2F7CA018170898359815C8329C0E3E302
:1015E000F0E08081282F30E08A81882F90E0A901E7
:1015F00002C0559547958A95E2F7CA0181708983A3
:1016000059815C8315C0E0E3F0E08081282F30E051
:101610008A81882F90E0A90102C0559547958A9547
:10162000E2F7CA018170898359815C8301C002C0DD
:101630008C818F838F8127960FB6F894DEBF0FBE03
:10164000CDBFCF91DF910895DF93CF93CDB7DEB7B4
:101650000E94F20DCF91DF910895DF93CF93CDB724
:10166000DEB72E970FB6F894DEBF0FBECDBFEAE40B
:10167000F0E01182108280E090E0AAE7B4E48B876A
:101680009C87AD87BE876B857C858D859E8520E098
:1016900030E04AEF54E40E941702DC01CB018F8353
:1016A0009887A987BA876F81788589859A8520E090
:1016B00030E040E85FE30E941D0488232CF481E0C1
:1016C00090E09E838D833FC06F81788589859A8560
:1016D00020E03FEF4FE757E40E94BD0318164CF59A
:1016E0006B857C858D859E8520E030E040E251E46D
:1016F0000E941702DC01CB01BC01CD010E94410018
:10170000DC01CB019E838D830FC088EC90E09C832D
:101710008B838B819C810197F1F79C838B838D81D7
:101720009E8101979E838D838D819E81009769F7AD
:1017300014C06F81788589859A850E944100DC01FB
:10174000CB019E838D838D819E819A83898389813C
:101750009A810197F1F79A8389832E960FB6F894B0
:10176000DEBF0FBECDBFCF91DF910895DF93CF9342
:10177000CDB7DEB76C970FB6F894DEBF0FBECDBF06
:10178000EAE4F0E087E791E09183808380E090E4F1
:10179000ACE9B5E4898F9A8FAB8FBC8F698D7A8D58
:1017A0008B8D9C8D20E030E04AEF54E40E941702BC
:1017B000DC01CB018D8B9E8BAF8BB88F6D897E89C1
:1017C0008F89988D20E030E040E85FE30E941D049F
:1017D00088232CF481E090E09C8B8B8B3FC06D893B
:1017E0007E898F89988D20E03FEF4FE757E40E9474
:1017F000BD0318164CF5698D7A8D8B8D9C8D20E07C
:1018000030E040E251E40E941702DC01CB01BC0150
:10181000CD010E944100DC01CB019C8B8B8B0FC062
:1018200088EC90E09A8B898B89899A890197F1F7E6
:101830009A8B898B8B899C8901979C8B8B8B8B894D
:101840009C89009769F714C06D897E898F89988D6E
:101850000E944100DC01CB019C8B8B8B8B899C8986
:10186000988B8F878F8598890197F1F7988B8F8751
:10187000EAE4F0E01182108280E090E0AAE7B4E4AC
:101880008B879C87AD87BE876B857C858D859E8584
:1018900020E030E04AEF54E40E941702DC01CB0163
:1018A0008F839887A987BA876F81788589859A857C
:1018B00020E030E040E85FE30E941D0488232CF420
:1018C00081E090E09E838D833FC06F81788589851C
:1018D0009A8520E03FEF4FE757E40E94BD031816BA
:1018E0004CF56B857C858D859E8520E030E040E25F
:1018F00051E40E941702DC01CB01BC01CD010E9422
:101900004100DC01CB019E838D830FC088EC90E009
:101910009C838B838B819C810197F1F79C838B83C4
:101920008D819E8101979E838D838D819E810097FD
:1019300069F714C06F81788589859A850E94410076
:10194000DC01CB019E838D838D819E819A83898367
:1019500089819A810197F1F79A8389836C960FB6F2
:10196000F894DEBF0FBECDBFCF91DF910895DF9316
:10197000CF9300D0CDB7DEB789836A838A8161E0D7
:1019800049810E949A080F900F90CF91DF9108959E
:10199000DF93CF9300D0CDB7DEB789836A838A8186
:1019A00061E049810E949A090F900F90CF91DF91D9
:1019B0000895DF93CF9300D0CDB7DEB789836A83D4
:1019C0008A8160E049810E949A090F900F90CF911F
:1019D000DF910895DF93CF9300D0CDB7DEB7898331
:1019E0006A838A8169810E949A0A0F900F90CF9131
:1019F000DF910895DF93CF93CDB7DEB7A7E3B0E0D3
:101A0000E7E3F0E0808180618C93A7E3B0E0E7E357
:101A1000F0E0808180628C93A7E3B0E0E7E3F0E040
:101A200080818F7B8C93A7E3B0E0E7E3F0E08081D7
:101A300080688C93EDE2F0E080E58083CF91DF91C8
:101A40000895DF93CF93CDB7DEB7A7E3B0E0E7E328
:101A5000F0E080818F7E8C93A7E3B0E0E7E3F0E0D5
:101A600080818F7D8C93A7E3B0E0E7E3F0E0808195
:101A700080648C93A7E3B0E0E7E3F0E080818F77A8
:101A80008C93EDE2F0E080E48083CF91DF910895C4
:101A9000DF93CF930F92CDB7DEB78983EFE2F0E00B
:101AA00089818083EEE2F0E080818823DCF70F906B
:101AB000CF91DF910895DF93CF93CDB7DEB7EEE2FC
:101AC000F0E080818823DCF7EFE2F0E08081CF91C5
:101AD000DF910895DF93CF9300D00F92CDB7DEB79B
:101AE0009B838A8319820EC08981282F30E08A81E6
:101AF0009B81FC01E20FF31F80810E94480D8981C8
:101B00008F5F89838981282F30E08A819B81FC0146
:101B1000E20FF31F8081882339F70F900F900F9009
:101B2000CF91DF9108950F931F93DF93CF9300D050
:101B30000F92CDB7DEB79B838A8319828981282FC4
:101B400030E08A819B818C01020F131F0E945B0D84
:101B5000F80180830FC089818F5F89838981282F55
:101B600030E08A819B818C01020F131F0E945B0D64
:101B7000F80180838981282F30E08A819B81FC01D4
:101B8000E20FF31F8081833231F78981282F30E003
:101B90008A819B81FC01E20FF31F10820F900F904E
:101BA0000F90CF91DF911F910F910895DF93CF9305
:101BB000CDB7DEB7ADE2B0E0EDE2F0E080818F7B43
:101BC0008C93CF91DF910895DF93CF93CDB7DEB79C
:101BD000ADE2B0E0EDE2F0E0808180648C93CF91E3
:101BE000DF910895DF93CF93CDB7DEB7A1E3B0E0E7
:101BF000E1E3F0E0808180628C93AFE4B0E0EFE459
:101C0000F0E0808182688C93AEE4B0E0EEE4F0E036
:101C100080818A618C93E6E4F0E087E893E1918328
:101C20008083EAE4F0E011821082CF91DF91089581
:101C30000F931F93DF93CF930F92CDB7DEB78983B6
:101C400089818B3518F08AE589832CC00AE410E07D
:101C50008981882F90E0AA2797FDA095BA2FBC0113
:101C6000CD010E944D04DC01CB01BC01CD012BE074
:101C700036E445EA5FE30E941702DC01CB01BC01B8
:101C8000CD0120E030E046E353E40E94EA01DC01AC
:101C9000CB01BC01CD010E944100DC01CB01F80168
:101CA000918380830F90CF91DF911F910F910895C1
:101CB0000F931F93DF93CF930F92CDB7DEB7898336
:101CC00089818B3518F08AE589832CC00AE410E0FD
:101CD0008981882F90E0AA2797FDA095BA2FBC0193
:101CE000CD010E944D04DC01CB01BC01CD012BE0F4
:101CF00036E445EA5FEB0E941702DC01CB01BC0130
:101D0000CD0120E030E046E353E40E94EA01DC012B
:101D1000CB01BC01CD010E944100DC01CB01F801E7
:101D2000918380830F90CF91DF911F910F91089540
:101D3000DF93CF93CDB7DEB7E4E3F0E08FEF80839E
:101D4000A1E3B0E0E1E3F0E080818C618C9382E07C
:101D50000E94B60E88E30E94B60E8CE00E94B60E7A
:101D600081E00E94B60ECF91DF910895DF93CF936B
:101D7000CDB7DEB7AB970FB6F894DEBF0FBECDBFC1
:101D80008BA7A2E3B0E0E2E3F0E080818B7F8C934D
:101D9000A2E3B0E0E2E3F0E08081877F8C93E5E3AB
:101DA000F0E08BA5808380E090E0A0E8BFE38FA304
:101DB00098A7A9A7BAA76FA178A589A59AA520E099
:101DC00030E04AE753E40E941702DC01CB018BA309
:101DD0009CA3ADA3BEA36BA17CA18DA19EA120E07D
:101DE00030E040E85FE30E941D0488232CF481E08A
:101DF00090E09AA389A33FC06BA17CA18DA19EA175
:101E000020E03FEF4FE757E40E94BD0318164CF562
:101E10006FA178A589A59AA520E030E040E251E4C1
:101E20000E941702DC01CB01BC01CD010E944100E0
:101E3000DC01CB019AA389A30FC089E190E098A3AC
:101E40008F8F8F8D98A10197F1F798A38F8F89A11C
:101E50009AA101979AA389A389A19AA1009769F7EA
:101E600014C06BA17CA18DA19EA10E944100DC0148
:101E7000CB019AA389A389A19AA19E8F8D8F8D8D65
:101E80009E8D0197F1F79E8F8D8FA2E3B0E0E2E384
:101E9000F0E0808180618C9380E090E0A0E8BFE377
:101EA000898F9A8FAB8FBC8F698D7A8D8B8D9C8D2E
:101EB00020E030E04AE753E40E941702DC01CB0146
:101EC0008D8B9E8BAF8BB88F6D897E898F89988D16
:101ED00020E030E040E85FE30E941D0488232CF4FA
:101EE00081E090E09C8B8B8B3FC06D897E898F89D0
:101EF000988D20E03FEF4FE757E40E94BD0318168E
:101F00004CF5698D7A8D8B8D9C8D20E030E040E220
:101F100051E40E941702DC01CB01BC01CD010E94FB
:101F20004100DC01CB019C8B8B8B0FC089E190E0E1
:101F30009A8B898B89899A890197F1F79A8B898B7A
:101F40008B899C8901979C8B8B8B8B899C890097B3
:101F500069F714C06D897E898F89988D0E94410030
:101F6000DC01CB019C8B8B8B8B899C89988B8F8719
:101F70008F8598890197F1F7988B8F87A2E3B0E05E
:101F8000E2E3F0E080818F7E8C9380E090E0A0E837
:101F9000BFE38B879C87AD87BE876B857C858D85EE
:101FA0009E8520E030E04AE753E40E941702DC01FE
:101FB000CB018F839887A987BA876F8178858985B8
:101FC0009A8520E030E040E85FE30E941D0488230A
:101FD0002CF481E090E09E838D833FC06F817885F3
:101FE00089859A8520E03FEF4FE757E40E94BD03C3
:101FF00018164CF56B857C858D859E8520E030E03C
:1020000040E251E40E941702DC01CB01BC01CD018A
:102010000E944100DC01CB019E838D830FC089E1CA
:1020200090E09C838B838B819C810197F1F79C834B
:102030008B838D819E8101979E838D838D819E816F
:10204000009769F714C06F81788589859A850E9409
:102050004100DC01CB019E838D838D819E819A831B
:10206000898389819A810197F1F79A838983AB9655
:102070000FB6F894DEBF0FBECDBFCF91DF910895AC
:10208000DF93CF93CDB7DEB7E9970FB6F894DEBFF5
:102090000FBECDBF89AFA2E3B0E0E2E3F0E0808104
:1020A00084608C93A2E3B0E0E2E3F0E08081877F7C
:1020B0008C93A2E3B0E0E2E3F0E0808180618C9356
:1020C00080E090E0A0E8BFE38DAB9EABAFABB8AFD4
:1020D0006DA97EA98FA998AD20E030E04AE753E4CE
:1020E0000E941702DC01CB0189AB9AABABABBCAB56
:1020F00069A97AA98BA99CA920E030E040E85FE3B8
:102100000E941D0488232CF481E090E098AB8FA7F7
:102110003FC069A97AA98BA99CA920E03FEF4FE7AE
:1021200057E40E94BD0318164CF56DA97EA98FA92E
:1021300098AD20E030E040E251E40E941702DC015B
:10214000CB01BC01CD010E944100DC01CB0198AB69
:102150008FA70FC089E190E09EA78DA78DA59EA5B2
:102160000197F1F79EA78DA78FA598A9019798AB26
:102170008FA78FA598A9009769F714C069A97AA9B4
:102180008BA99CA90E944100DC01CB0198AB8FA7D1
:102190008FA598A99CA78BA78BA59CA50197F1F764
:1021A0009CA78BA7E5E3F0E089AD808380E090E019
:1021B000A0E8BFE38FA398A7A9A7BAA76FA178A5A6
:1021C00089A59AA520E030E04AE753E40E9417026F
:1021D000DC01CB018BA39CA3ADA3BEA36BA17CA10F
:1021E0008DA19EA120E030E040E85FE30E941D0445
:1021F00088232CF481E090E09AA389A33FC06BA1CF
:102200007CA18DA19EA120E03FEF4FE757E40E9403
:10221000BD0318164CF56FA178A589A59AA520E0F5
:1022200030E040E251E40E941702DC01CB01BC0126
:10223000CD010E944100DC01CB019AA389A30FC00C
:1022400089E190E098A38F8F8F8D98A10197F1F786
:1022500098A38F8F89A19AA101979AA389A389A195
:102260009AA1009769F714C06BA17CA18DA19EA1D2
:102270000E944100DC01CB019AA389A389A19AA104
:102280009E8F8D8F8D8D9E8D0197F1F79E8F8D8FF7
:10229000A2E3B0E0E2E3F0E0808180618C9380E033
:1022A00090E0A0E8BFE3898F9A8FAB8FBC8F698DD8
:1022B0007A8D8B8D9C8D20E030E04AE753E40E94BC
:1022C0001702DC01CB018D8B9E8BAF8BB88F6D8994
:1022D0007E898F89988D20E030E040E85FE30E949E
:1022E0001D0488232CF481E090E09C8B8B8B3FC0F5
:1022F0006D897E898F89988D20E03FEF4FE757E405
:102300000E94BD0318164CF5698D7A8D8B8D9C8DBE
:1023100020E030E040E251E40E941702DC01CB01F2
:10232000BC01CD010E944100DC01CB019C8B8B8B59
:102330000FC089E190E09A8B898B89899A890197EE
:10234000F1F79A8B898B8B899C8901979C8B8B8B5E
:102350008B899C89009769F714C06D897E898F8964
:10236000988D0E944100DC01CB019C8B8B8B8B896B
:102370009C89988B8F878F8598890197F1F7988B27
:102380008F87A2E3B0E0E2E3F0E080818F7E8C9360
:1023900080E090E0A0E8BFE38B879C87AD87BE8795
:1023A0006B857C858D859E8520E030E04AE753E48F
:1023B0000E941702DC01CB018F839887A987BA8717
:1023C0006F81788589859A8520E030E040E85FE379
:1023D0000E941D0488232CF481E090E09E838D836D
:1023E0003FC06F81788589859A8520E03FEF4FE770
:1023F00057E40E94BD0318164CF56B857C858D85CE
:102400009E8520E030E040E251E40E941702DC01AA
:10241000CB01BC01CD010E944100DC01CB019E83B8
:102420008D830FC089E190E09C838B838B819C819D
:102430000197F1F79C838B838D819E8101979E8309
:102440008D838D819E81009769F714C06F81788597
:1024500089859A850E944100DC01CB019E838D8392
:102460008D819E819A83898389819A810197F1F771
:102470009A838983E9960FB6F894DEBF0FBECDBF6D
:10248000CF91DF910895DF93CF9300D00F92CDB716
:10249000DEB79B838A8319820EC08981282F30E0A2
:1024A0008A819B81FC01E20FF31F80810E94401012
:1024B00089818F5F89838981282F30E08A819B8180
:1024C000FC01E20FF31F8081882339F70F900F90F2
:1024D0000F90CF91DF910895DF93CF9300D000D07C
:1024E0000F92CDB7DEB78A836B838A81282F30E0C5
:1024F0003D832C838C819D81009731F02C813D811F
:102500002130310521F006C08B81898303C08B8186
:10251000805C8983898180680E94B60E0F900F903D
:102520000F900F900F90CF91DF910895DF93CF938D
:1025300000D000D0CDB7DEB789836A835C834B833C
:1025400089816A810E946C128B819C810E94431256
:102550000F900F900F900F90CF91DF910895DF9320
:10256000CF93CDB7DEB762970FB6F894DEBF0FBE3C
:10257000CDBF9A8B898B89899A899E012F5F3F4FA6
:10258000B9014AE050E00E94E31CCE0101960E948E
:10259000431262960FB6F894DEBF0FBECDBFCF9147
:1025A000DF910895DF93CF93CDB7DEB781E00E942E
:1025B000B60ECF91DF9108950F931F93DF93CF93C2
:1025C000CDB7DEB7C95CD0400FB6F894DEBF0FBE02
:1025D000CDBFA7E3B0E0E7E3F0E0808181608C93BA
:1025E000FE01E754FF4F10820E946D070E94980E73
:1025F0000E94D21280E060E00E946C12FE01ED5455
:10260000FF4F80E090E0A8E4B2E480839183A2834E
:10261000B3838E0101551F4FFE01ED54FF4F6081C2
:1026200071818281938120E030E04AE753E40E9487
:102630001702DC01CB01F80180839183A283B3836D
:10264000FE01E155FF4F608171818281938120E01D
:1026500030E040E85FE30E941D04882344F4FE015B
:10266000E355FF4F81E090E09183808364C0FE01D9
:10267000E155FF4F608171818281938120E03FEFBE
:102680004FE757E40E94BD0318160CF043C0FE014B
:10269000ED54FF4F608171818281938120E030E0B1
:1026A00040E251E40E941702DC01CB018E01035588
:1026B0001F4FBC01CD010E944100DC01CB01F8019C
:1026C000918380831FC0FE01E555FF4F89E190E0B3
:1026D00091838083FE01E555FF4F808191810197B1
:1026E000F1F7FE01E555FF4F91838083DE01A3558D
:1026F000BF4FFE01E355FF4F8081918101971196F5
:102700009C938E93FE01E355FF4F8081918100974A
:10271000D1F627C08E0103551F4FFE01E155FF4F33
:1027200060817181828193810E944100DC01CB0133
:10273000F80191838083DE01A755BF4FFE01E35569
:10274000FF4F808191818D939C93FE01E755FF4F50
:10275000808191810197F1F7FE01E755FF4F918349
:102760008083E3E4F0E01082E3E5F0E089E6808333
:10277000A7E3B0E0E7E3F0E0808188608C93ECE5CC
:10278000F0E08FEF80830E94A7070E94C3070E949A
:10279000240B0E94210DAAE3B0E0EAE3F0E080817F
:1027A00084608C93AAE3B0E0EAE3F0E08081886083
:1027B0008C93AAE3B0E0EAE3F0E0808180618C933F
:1027C000AAE3B0E0EAE3F0E0808180688C93AAE3BA
:1027D000B0E0EAE3F0E0808180648C93ABE3B0E0AA
:1027E000EBE3F0E080818F7B8C930E945B0DFE0118
:1027F000E754FF4F8083FE01E754FF4F8081282F6D
:1028000030E0C853DF4F39832883C85CD040C853B9
:10281000DF4F88819981C85CD0408530910509F4EB
:1028200081C3C853DF4FE881F981C85CD040E630EE
:10283000F1059CF5C853DF4F28813981C85CD04031
:102840002230310509F428C1C853DF4F88819981AE
:10285000C85CD040833091055CF4C853DF4FE881F9
:10286000F981C85CD040E130F10509F453C0BDCF17
:10287000C853DF4F28813981C85CD04023303105EF
:1028800009F4CCC1C853DF4F88819981C85CD0401E
:102890008430910509F484C2A8CFC853DF4FE88182
:1028A000F981C85CD040E830F10509F485C6C85309
:1028B000DF4F28813981C85CD04029303105ACF424
:1028C000C853DF4F88819981C85CD040863091051C
:1028D00009F4EAC3C853DF4FE881F981C85CD040EE
:1028E000E730F10509F466C580CFC853DF4F288172
:1028F0003981C85CD0402930310509F4DCC6C853A1
:10290000DF4F88819981C85CD0408A30910509F4F5
:1029100053C76BCFABE3B0E0EBE3F0E080818460C2
:102920008C93FE01EB55FF4F80E090E4ACE9B5E4F9
:1029300080839183A283B3838E010F551F4FFE01C5
:10294000EB55FF4F608171818281938120E030E0FF
:102950004AE753E40E941702DC01CB01F8018083AF
:102960009183A283B383FE01EF55FF4F6081718194
:102970008281938120E030E040E85FE30E941D0403
:10298000882344F4FE01E156FF4F81E090E09183FB
:10299000808364C0FE01EF55FF4F608171818281A9
:1029A000938120E03FEF4FE757E40E94BD031816E4
:1029B0000CF043C0FE01EB55FF4F608171818281B5
:1029C000938120E030E040E251E40E941702DC01F4
:1029D000CB018E0101561F4FBC01CD010E94410069
:1029E000DC01CB01F801918380831FC0FE01E35617
:1029F000FF4F89E190E091838083FE01E356FF4F12
:102A0000808191810197F1F7FE01E356FF4F918399
:102A10008083DE01A156BF4FFE01E156FF4F80814A
:102A20009181019711969C938E93FE01E156FF4F81
:102A3000808191810097D1F627C08E0101561F4FEA
:102A4000FE01EF55FF4F60817181828193810E9469
:102A50004100DC01CB01F80191838083DE01A556A2
:102A6000BF4FFE01E156FF4F808191818D939C9372
:102A7000FE01E556FF4F808191810197F1F7FE013C
:102A8000E556FF4F91838083ABE3B0E0EBE3F0E0EA
:102A900080818B7F8C93A9CEABE3B0E0EBE3F0E0D9
:102AA000808188608C93FE01E956FF4F80E090E4BE
:102AB000ACE9B5E480839183A283B3838E010D5684
:102AC0001F4FFE01E956FF4F608171818281938122
:102AD00020E030E04AE753E40E941702DC01CB011A
:102AE000F80180839183A283B383FE01ED56FF4FEB
:102AF000608171818281938120E030E040E85FE372
:102B00000E941D04882344F4FE01EF56FF4F81E02C
:102B100090E09183808364C0FE01ED56FF4F608199
:102B200071818281938120E03FEF4FE757E40E945B
:102B3000BD0318160CF043C0FE01E956FF4F60813B
:102B400071818281938120E030E040E251E40E9473
:102B50001702DC01CB018E010F561F4FBC01CD01C6
:102B60000E944100DC01CB01F801918380831FC0EA
:102B7000FE01E157FF4F89E190E091838083FE01E0
:102B8000E157FF4F808191810197F1F7FE01E157F5
:102B9000FF4F91838083DE01AF56BF4FFE01EF569A
:102BA000FF4F80819181019711969C938E93FE0136
:102BB000EF56FF4F808191810097D1F627C08E019B
:102BC0000F561F4FFE01ED56FF4F608171818281CC
:102BD00093810E944100DC01CB01F8019183808345
:102BE000DE01A357BF4FFE01EF56FF4F8081918159
:102BF0008D939C93FE01E357FF4F80819181019754
:102C0000F1F7FE01E357FF4F91838083ABE3B0E020
:102C1000EBE3F0E08081877F8C93E7CDABE3B0E01E
:102C2000EBE3F0E0808180618C93FE01E757FF4F7A
:102C300080E090E4ACE9B5E480839183A283B38320
:102C40008E010B571F4FFE01E757FF4F60817181C7
:102C50008281938120E030E04AE753E40E9417022A
:102C6000DC01CB01F80180839183A283B383FE0151
:102C7000EB57FF4F608171818281938120E030E0CA
:102C800040E85FE30E941D04882344F4FE01ED57F1
:102C9000FF4F81E090E09183808364C0FE01EB5799
:102CA000FF4F608171818281938120E03FEF4FE788
:102CB00057E40E94BD0318160CF043C0FE01E7570D
:102CC000FF4F608171818281938120E030E040E29A
:102CD00051E40E941702DC01CB018E010D571F4FFA
:102CE000BC01CD010E944100DC01CB01F8019183C0
:102CF00080831FC0FE01EF57FF4F89E190E0918371
:102D00008083FE01EF57FF4F808191810197F1F79A
:102D1000FE01EF57FF4F91838083DE01AD57BF4F18
:102D2000FE01ED57FF4F80819181019711969C9391
:102D30008E93FE01ED57FF4F808191810097D1F670
:102D400027C08E010D571F4FFE01EB57FF4F6081CB
:102D50007181828193810E944100DC01CB01F801E5
:102D600091838083DE01A158BF4FFE01ED57FF4FD5
:102D7000808191818D939C93FE01E158FF4F80816A
:102D800091810197F1F7FE01E158FF4F9183808314
:102D9000ABE3B0E0EBE3F0E080818F7E8C9325CD58
:102DA000ABE3B0E0EBE3F0E0808180688C93FE0160
:102DB000E558FF4F80E090E4ACE9B5E4808391836F
:102DC000A283B3838E0109581F4FFE01E558FF4FC0
:102DD000608171818281938120E030E04AE753E491
:102DE0000E941702DC01CB01F80180839183A2834A
:102DF000B383FE01E958FF4F608171818281938125
:102E000020E030E040E85FE30E941D04882344F4A2
:102E1000FE01EB58FF4F81E090E09183808364C016
:102E2000FE01E958FF4F608171818281938120E02A
:102E30003FEF4FE757E40E94BD0318160CF043C064
:102E4000FE01E558FF4F608171818281938120E00E
:102E500030E040E251E40E941702DC01CB018E0118
:102E60000B581F4FBC01CD010E944100DC01CB017A
:102E7000F801918380831FC0FE01ED58FF4F89E167
:102E800090E091838083FE01ED58FF4F8081918116
:102E90000197F1F7FE01ED58FF4F91838083DE012A
:102EA000AB58BF4FFE01EB58FF4F808191810197D6
:102EB00011969C938E93FE01EB58FF4F8081918178
:102EC0000097D1F627C08E010B581F4FFE01E9581D
:102ED000FF4F60817181828193810E944100DC01FA
:102EE000CB01F80191838083DE01AF58BF4FFE0113
:102EF000EB58FF4F808191818D939C93FE01EF5899
:102F0000FF4F808191810197F1F7FE01EF58FF4F4C
:102F100091838083ABE3B0E0EBE3F0E080818F77D7
:102F20008C9363CCABE3B0E0EBE3F0E080818064B2
:102F30008C93FE01E359FF4F80E090E4ACE9B5E4E7
:102F400080839183A283B3838E0107591F4FFE01B3
:102F5000E359FF4F608171818281938120E030E0ED
:102F60004AE753E40E941702DC01CB01F801808399
:102F70009183A283B383FE01E759FF4F6081718182
:102F80008281938120E030E040E85FE30E941D04ED
:102F9000882344F4FE01E959FF4F81E090E09183DA
:102FA000808364C0FE01E759FF4F60817181828197
:102FB000938120E03FEF4FE757E40E94BD031816CE
:102FC0000CF043C0FE01E359FF4F608171818281A3
:102FD000938120E030E040E251E40E941702DC01DE
:102FE000CB018E0109591F4FBC01CD010E94410048
:102FF000DC01CB01F801918380831FC0FE01EB59F6
:10300000FF4F89E190E091838083FE01EB59FF4FF0
:10301000808191810197F1F7FE01EB59FF4F918378
:103020008083DE01A959BF4FFE01E959FF4F80811E
:103030009181019711969C938E93FE01E959FF4F60
:10304000808191810097D1F627C08E0109591F4FC9
:10305000FE01E759FF4F60817181828193810E9457
:103060004100DC01CB01F80191838083DE01AD5981
:10307000BF4FFE01E959FF4F808191818D939C9351
:10308000FE01ED59FF4F808191810197F1F7FE011B
:10309000ED59FF4F91838083ABE3B0E0EBE3F0E0C9
:1030A00080818F7B8C93A1CBFE01E954FF4F11826D
:1030B000108276C10E94B507FE01E15AFF4F80E001
:1030C00090E4ACE9B5E480839183A283B3838E015D
:1030D000055A1F4FFE01E15AFF4F608171818281C5
:1030E000938120E030E04AE753E40E941702DC01BC
:1030F000CB01F80180839183A283B383FE01E55A5B
:10310000FF4F608171818281938120E030E040E84F
:103110005FE30E941D04882344F4FE01E75AFF4F39
:1031200081E090E09183808364C0FE01E55AFF4F07
:10313000608171818281938120E03FEF4FE757E406
:103140000E94BD0318160CF043C0FE01E15AFF4F68
:10315000608171818281938120E030E040E251E41E
:103160000E941702DC01CB018E01075A1F4FBC01E0
:10317000CD010E944100DC01CB01F80191838083E5
:103180001FC0FE01E95AFF4F89E190E091838083DF
:10319000FE01E95AFF4F808191810197F1F7FE010D
:1031A000E95AFF4F91838083DE01A75ABF4FFE018A
:1031B000E75AFF4F80819181019711969C938E93DE
:1031C000FE01E75AFF4F808191810097D1F627C019
:1031D0008E01075A1F4FFE01E55AFF4F6081718132
:1031E000828193810E944100DC01CB01F80191832F
:1031F0008083DE01AB5ABF4FFE01E75AFF4F80814B
:1032000091818D939C93FE01EB5AFF4F80819181B8
:103210000197F1F7FE01EB5AFF4F918380830E94E3
:10322000C307FE01EF5AFF4F80E090E4ACE9B5E43C
:1032300080839183A283B3838E01035B1F4FFE01C2
:10324000EF5AFF4F608171818281938120E030E0ED
:103250004AE753E40E941702DC01CB01F8018083A6
:103260009183A283B383FE01E35BFF4F6081718191
:103270008281938120E030E040E85FE30E941D04FA
:10328000882344F4FE01E55BFF4F81E090E09183E9
:10329000808364C0FE01E35BFF4F608171818281A6
:1032A000938120E03FEF4FE757E40E94BD031816DB
:1032B0000CF043C0FE01EF5AFF4F608171818281A3
:1032C000938120E030E040E251E40E941702DC01EB
:1032D000CB018E01055B1F4FBC01CD010E94410057
:1032E000DC01CB01F801918380831FC0FE01E75B05
:1032F000FF4F89E190E091838083FE01E75BFF4F00
:10330000808191810197F1F7FE01E75BFF4F918387
:103310008083DE01A55BBF4FFE01E55BFF4F80812F
:103320009181019711969C938E93FE01E55BFF4F6F
:10333000808191810097D1F627C08E01055B1F4FD8
:10334000FE01E35BFF4F60817181828193810E9466
:103350004100DC01CB01F80191838083DE01A95B90
:10336000BF4FFE01E55BFF4F808191818D939C9360
:10337000FE01E95BFF4F808191810197F1F7FE012A
:10338000E95BFF4F91838083DE01A954BF4FFE01AB
:10339000E954FF4F80819181019611969C938E9301
:1033A000FE01E954FF4F808191818A3091050CF430
:1033B00081CE1BCAEAE4F0E087E791E09183808345
:1033C000FE01ED5BFF4F80E090E4ACE9B5E4808363
:1033D0009183A283B3838E01015C1F4FFE01ED5BDD
:1033E000FF4F608171818281938120E030E04AE764
:1033F00053E40E941702DC01CB01F8018083918322
:10340000A283B383FE01FF966081718182819381E3
:1034100020E030E040E85FE30E941D0488232CF4A4
:1034200081E090E09EAF8DAF46C0FE01FF966081C7
:1034300071818281938120E03FEF4FE757E40E9442
:10344000BD03181664F5FE01ED5BFF4F60817181CD
:103450008281938120E030E040E251E40E94170233
:10346000DC01CB01BC01CD010E944100DC01CB019C
:103470009EAF8DAF0FC089E190E09CAF8BAF8BAD5D
:103480009CAD0197F1F79CAF8BAF8DAD9EAD0197D1
:103490009EAF8DAF8DAD9EAD009769F716C0FE0152
:1034A000FF9660817181828193810E944100DC01DD
:1034B000CB019EAF8DAF8DAD9EAD9AAF89AF89AD7B
:1034C0009AAD0197F1F79AAF89AFEAE4F0E0118283
:1034D000108280E090E0AAE7B4E48DAB9EABAFAB86
:1034E000B8AF6DA97EA98FA998AD20E030E04AE77A
:1034F00053E40E941702DC01CB0189AB9AABABAB62
:10350000BCAB69A97AA98BA99CA920E030E040E86E
:103510005FE30E941D0488232CF481E090E098ABC7
:103520008FA73FC069A97AA98BA99CA920E03FEF8A
:103530004FE757E40E94BD0318164CF56DA97EA90C
:103540008FA998AD20E030E040E251E40E941702DC
:10355000DC01CB01BC01CD010E944100DC01CB01AB
:1035600098AB8FA70FC089E190E09EA78DA78DA58E
:103570009EA50197F1F79EA78DA78FA598A9019702
:1035800098AB8FA78FA598A9009769F72EC969A94D
:103590007AA98BA99CA90E944100DC01CB0198ABC0
:1035A0008FA78FA598A99CA78BA78BA59CA50197F2
:1035B000F1F79CA78BA719C9ECE5F0E080818F3F5C
:1035C00039F0ACE5B0E0ECE5F0E08081875E8C930B
:1035D00080E090E0AAEFB3E48FA398A7A9A7BAA7C9
:1035E0006FA178A589A59AA520E030E04AE753E4C9
:1035F0000E941702DC01CB018BA39CA3ADA3BEA349
:103600006BA17CA18DA19EA120E030E040E85FE3AA
:103610000E941D0488232CF481E090E09AA389A3E2
:103620003FC06BA17CA18DA19EA120E03FEF4FE7A1
:1036300057E40E94BD0318164CF56FA178A589A523
:103640009AA520E030E040E251E40E941702DC013C
:10365000CB01BC01CD010E944100DC01CB019AA34A
:1036600089A30FC089E190E098A38F8F8F8D98A1D7
:103670000197F1F798A38F8F89A19AA101979AA337
:1036800089A389A19AA1009769F7AFC86BA17CA112
:103690008DA19EA10E944100DC01CB019AA389A3C8
:1036A00089A19AA19E8F8D8F8D8D9E8D0197F1F7A7
:1036B0009E8F8D8F9AC8ECE5F0E08081882339F0E9
:1036C000ACE5B0E0ECE5F0E0808189518C9380E0DE
:1036D00090E0AAEFB3E4898F9A8FAB8FBC8F698D8E
:1036E0007A8D8B8D9C8D20E030E04AE753E40E9478
:1036F0001702DC01CB018D8B9E8BAF8BB88F6D8950
:103700007E898F89988D20E030E040E85FE30E9459
:103710001D0488232CF481E090E09C8B8B8B40C0AF
:103720006D897E898F89988D20E03FEF4FE757E4C0
:103730000E94BD03181654F5698D7A8D8B8D9C8D72
:1037400020E030E040E251E40E941702DC01CB01AE
:10375000BC01CD010E944100DC01CB019C8B8B8B15
:103760000FC089E190E09A8B898B89899A890197AA
:10377000F1F79A8B898B8B899C8901979C8B8B8B1A
:103780008B899C89009769F70C94F5136D897E8964
:103790008F89988D0E944100DC01CB019C8B8B8B23
:1037A0008B899C89988B8F878F8598890197F1F7F2
:1037B000988B8F870C94F51380E090E00E947C0733
:1037C000FE01E454FF4F91838083FE01E454FF4FD8
:1037D00080819181CC01A0E0B0E0BC01CD010E94CC
:1037E000FF04DC01CB01BC01CD0127ED33EA40E051
:1037F00050E40E941103DC01CB018E0106541F4FDF
:10380000BC01CD010E94AB04DC01CB01F801918326
:10381000808380E060E00E946C12FE01E654FF4F5E
:10382000808191819E0122543F4FB9014AE050E0CE
:103830000E94E31CCE0182549F4F0E94431280E0FD
:1038400090E0AAE7B4E48B879C87AD87BE876B8541
:103850007C858D859E8520E030E04AE753E40E9418
:103860001702DC01CB018F839887A987BA876F8104
:10387000788589859A8520E030E040E85FE30E9402
:103880001D0488232CF481E090E09E838D833FC04B
:103890006F81788589859A8520E03FEF4FE757E46F
:1038A0000E94BD0318164CF56B857C858D859E8521
:1038B00020E030E040E251E40E941702DC01CB013D
:1038C000BC01CD010E944100DC01CB019E838D83B0
:1038D0000FC089E190E09C838B838B819C81019751
:1038E000F1F79C838B838D819E8101979E838D83CD
:1038F0008D819E81009769F714C06F8178858985D5
:103900009A850E944100DC01CB019E838D838D81CD
:103910009E819A83898389819A810197F1F79A839D
:103920008983FE01E654FF4F808191818C3191059E
:1039300024F0E8E3F0E081E08083FE01E654FF4FED
:10394000808191818D31910514F00C94F513E8E399
:10395000F0E010820C94F5132F923F924F925F92F9
:103960006F927F928F929F92AF92BF92CF92DF928F
:10397000EF92FF920F931F93CF93DF93CDB7DEB7F4
:10398000CA1BDB0B0FB6F894DEBF0FBECDBF099488
:103990002A88398848885F846E847D848C849B84DF
:1039A000AA84B984C884DF80EE80FD800C811B81ED
:1039B000AA81B981CE0FD11D0FB6F894DEBF0FBE1C
:1039C000CDBFED010895FB019F01E8944230C4F0A2
:1039D0004532B4F44A3029F497FB1EF49095819552
:1039E0009F4F642F77270E94141D805D8A330CF04F
:1039F000895D8193CB010097A1F716F45DE25193A5
:103A00001082C9010C94041DDC01FC01672F719127
:103A10007723E1F7329704C07C916D9370836291B4
:103A2000AE17BF07C8F30895AA1BBB1B51E107C01F
:103A3000AA1FBB1FA617B70710F0A61BB70B881F3E
:103A4000991F5A95A9F780959095BC01CD010895CD
:043A5000F894FFCF18
:103A54000000000000000000000102020303030351
:103A6400040404040404040405050505050505050A
:103A740005050505050505050606060606060606EA
:103A840006060606060606060606060606060606D2
:103A940006060606060606060707070707070707BA
:103AA40007070707070707070707070707070707A2
:103AB4000707070707070707070707070707070792
:103AC4000707070707070707070707070707070782
:103AD400070707070707070708080808080808086A
:103AE4000808080808080808080808080808080852
:103AF4000808080808080808080808080808080842
:103B04000808080808080808080808080808080831
:103B14000808080808080808080808080808080821
:103B24000808080808080808080808080808080811
:103B34000808080808080808080808080808080801
:103B440008080808080808080808080808080808F1
:083B5400080808080808080829
:00000001FF
