:100000000C942A000C9447000C9447000C945D1249
:100010000C9447000C9447000C9447000C94470044
:100020000C9447000C9447000C9447000C94470034
:100030000C9447000C9448120C9447000C94470011
:100040000C9447000C9447000C9447000C94470014
:100050000C94470011241FBECFE5D8E0DEBFCDBF12
:1000600012E0A0E6B0E0EAE2FEE602C005900D92E2
:10007000A634B107D9F712E0A6E4B2E001C01D92A0
:10008000A734B107E1F70E9472120C9413370C9455
:100090000000EF92FF920F931F937B018C0120E0F1
:1000A00030E040E05FE40E94490388238CF0C801FF
:1000B000B70120E030E040E05FE40E94C1010E940F
:1000C000A9039B01AC01205030404040504806C07D
:1000D000C801B7010E94A9039B01AC01B901CA0183
:1000E0001F910F91FF90EF900895A0E0B0E0EBE733
:1000F000F0E00C948E36DC012B01FA019C919230D9
:1001000008F439C1EB018881823008F433C194309E
:1001100069F4843009F02FC111969C91119789815F
:10012000981709F428C1ADE3B2E025C1843009F481
:1001300021C18230A9F4923009F01DC19A01AD01AC
:1001400088E0EA010990AE01E90109929E0181501F
:10015000C1F7E201898111969C918923818308C1AD
:10016000923009F407C112962D903C901397EB0141
:100170008A819B811496AD90BD90CD90DC901797AD
:10018000EC80FD800E811F819101281B390BB90184
:1001900037FF04C066277727621B730B6032710537
:1001A0000CF061C0121613066CF537014801062EDB
:1001B00004C096948794779467940A94D2F721E0C8
:1001C00030E040E050E004C0220F331F441F551FB1
:1001D0006A95D2F721503040404050402E213F21B7
:1001E00040235123211531054105510521F021E01E
:1001F00030E040E050E079018A01E628F72808293C
:1002000019293CC0232BD1F1260E371E350146019A
:10021000062E04C096948794779467940A94D2F734
:1002200021E030E040E050E004C0220F331F441FC3
:10023000551F6A95D2F721503040404050402A2146
:100240003B214C215D21211531054105510521F04E
:1002500021E030E040E050E059016A01A628B728CB
:10026000C828D9280BC0821593052CF01C01AA249C
:10027000BB24650103C0EE24FF24870111969C91E5
:10028000D20111968C91981709F445C0992339F041
:10029000A80197012A193B094C095D0906C0A6016E
:1002A00095012E193F09400B510B57FD08C01182D3
:1002B0003382228224833583468357831DC081E0A5
:1002C00081833382228288279927DC01821B930B4A
:1002D000A40BB50B84839583A683B7830DC0220F2F
:1002E000331F441F551F24833583468357838281E0
:1002F000938101979383828324813581468157813D
:10030000DA01C9010197A109B1098F5F9F4FAF4F72
:10031000BF4328F30BC0918333822282EA0CFB1C7B
:100320000C1D1D1DE482F5820683178383E0808304
:10033000248135814681578157FF1AC0C901AA27F8
:1003400097FDA095BA2F81709070A070B0705695EF
:10035000479537952795822B932BA42BB52B848318
:100360009583A683B7838281938101969383828349
:10037000DF0101C0D201CD01CDB7DEB7E2E10C94BF
:10038000AA36A0E2B0E0E7ECF1E00C949A3669837B
:100390007A838B839C832D833E834F835887E9E048
:1003A000EE2EF12CEC0EFD1ECE010196B7010E943F
:1003B000D2048E010F5E1F4FCE010596B8010E9438
:1003C000D2048A8991E089278A8BC701B801AE01DE
:1003D000475E5F4F0E9475000E94FD03A096E6E015
:1003E0000C94B636A0E2B0E0E8EFF1E00C949A3657
:1003F00069837A838B839C832D833E834F835887C5
:10040000F9E0EF2EF12CEC0EFD1ECE010196B701A6
:100410000E94D2048E010F5E1F4FCE010596B801D7
:100420000E94D204C701B801AE01475E5F4F0E942F
:1004300075000E94FD03A096E6E00C94B636A0E29B
:10044000B0E0E5E2F2E00C948E3669837A838B8328
:100450009C832D833E834F835887CE010196BE0136
:10046000675F7F4F0E94D204CE010596BE016F5E8A
:100470007F4F0E94D2049985923088F0898982301A
:10048000C8F0943019F4823051F404C0843029F457
:10049000923081F48DE392E0C6C0923049F420E0BE
:1004A0009A858A89981321E02A87CE010996BBC0D4
:1004B000823049F420E09A858A89981321E02A8BBA
:1004C000CE014196B0C02D843E844F8458886D88FB
:1004D0007E888F88988CEE24FF248701AA24BB2471
:1004E000650140E050E060E070E0E0E0F0E0C10174
:1004F00081709070892BE9F0E60CF71C081D191D1E
:100500009A01AB012A0D3B1D4C1D5D1D80E090E062
:10051000A0E0B0E0E614F7040805190520F481E036
:1005200090E0A0E0B0E0BA01A901480F591F6A1F8E
:100530007B1FAA0CBB1CCC1CDD1C97FE08C081E0F5
:1005400090E0A0E0B0E0A82AB92ACA2ADB2A3196B6
:10055000E032F10549F0660C771C881C991C569412
:10056000479437942794C3CFFA85EA892B893C892D
:100570008B859C85280F391F2E5F3F4F17C0CA01FE
:1005800081709070892B61F016950795F794E79428
:1005900080E090E0A0E0B0E8E82AF92A0A2B1B2BC3
:1005A00076956795579547952F5F3F4F77FDE7CF36
:1005B0000CC0440F551F661F771F17FD4160EE0CDE
:1005C000FF1C001F111F21503040403090E05907A0
:1005D00090E0690790E4790760F32B8F3C8FDB0193
:1005E000CA018F779070A070B07080349105A1051A
:1005F000B10561F447FD0AC0E114F10401051105DC
:1006000029F0405C5F4F6F4F7F4F40781A8EFE1786
:1006100011F081E08A8F4D8F5E8F6F8F78A383E01A
:10062000898FCE0149960E94FD03A096E2E10C94C9
:10063000AA36A8E1B0E0EFE1F3E00C949A366983C2
:100640007A838B839C832D833E834F83588789E0F5
:10065000E82EF12CEC0EFD1ECE010196B7010E9492
:10066000D2048E010F5E1F4FCE010596B8010E9485
:10067000D2048985823040F08989823028F0C70110
:10068000B8010E944A0501C08FEF6896E6E00C941D
:10069000B636A8E1B0E0EFE4F3E00C949A36698353
:1006A0007A838B839C832D833E834F83588789E095
:1006B000E82EF12CEC0EFD1ECE010196B7010E9432
:1006C000D2048E010F5E1F4FCE010596B8010E9425
:1006D000D2048985823040F08989823028F0C701B0
:1006E000B8010E944A0501C08FEF6896E6E00C94BD
:1006F000B636A8E1B0E0EFE7F3E00C949A366983F0
:100700007A838B839C832D833E834F83588789E034
:10071000E82EF12CEC0EFD1ECE010196B7010E94D1
:10072000D2048E010F5E1F4FCE010596B8010E94C4
:10073000D2048985823040F08989823028F0C7014F
:10074000B8010E944A0501C081E06896E6E00C9479
:10075000B636ACE0B0E0EFEAF3E00C949E36698385
:100760007A838B839C83CE010196BE016B5F7F4FA2
:100770000E94D2048D81823061F1823050F1843048
:1007800021F48E81882351F12EC02F81388537FDC9
:1007900020C06E812F3131051CF06623F9F023C093
:1007A0008EE190E0821B930B29853A854B855C8511
:1007B00004C056954795379527958A95D2F76623B5
:1007C000B1F050954095309521953F4F4F4F5F4F79
:1007D0000EC020E030E040E050E009C02FEF3FEFD6
:1007E0004FEF5FE704C020E030E040E050E8B9019F
:1007F000CA012C96E2E00C94BA36DF92EF92FF9297
:100800000F931F93FC01E480F58006811781D1804E
:100810008081823048F480E090E0A0E1B0E0E82AF6
:10082000F92A0A2B1B2BA5C0843009F49FC0823003
:1008300021F4EE24FF24870105C0E114F104010531
:10084000110519F4E0E0F0E096C0628173819FEF3A
:10085000623879070CF05BC022E83FEF261B370BAC
:100860002A3131052CF020E030E040E050E02AC091
:10087000B801A701022E04C0769567955795479554
:100880000A94D2F781E090E0A0E0B0E004C0880FC5
:10089000991FAA1FBB1F2A95D2F70197A109B10979
:1008A0008E219F21A023B1230097A105B10521F03E
:1008B00081E090E0A0E0B0E09A01AB01282B392B59
:1008C0004A2B5B2BDA01C9018F779070A070B07052
:1008D00080349105A105B10539F427FF09C0205CDA
:1008E0003F4F4F4F5F4F04C0215C3F4F4F4F5F4F13
:1008F000E0E0F0E02030A0E03A07A0E04A07A0E402
:100900005A0710F0E1E0F0E079018A0127C0603871
:10091000710564F5FB01E158FF4FD801C7018F77DE
:100920009070A070B07080349105A105B10539F4C4
:10093000E7FE0DC080E490E0A0E0B0E004C08FE3EB
:1009400090E0A0E0B0E0E80EF91E0A1F1B1F17FFA1
:1009500005C016950795F794E794319687E01695AC
:100960000795F794E7948A95D1F705C0EE24FF2404
:100970008701EFEFF0E06E2F679566276795902F60
:100980009F77D794DD24D7948E2F8695492F462BB9
:10099000582F5D29B701CA011F910F91FF90EF9069
:1009A000DF900895FC01DB01408151812281622F9B
:1009B0006F7770E0221F2227221F9381892F880FD3
:1009C000822B282F30E0991F9927991F11969C930D
:1009D000119721153105A9F54115510561057105DD
:1009E00011F482E037C082E89FEF13969C938E93B8
:1009F00012979A01AB0167E0220F331F441F551F66
:100A00006A95D1F783E08C930DC0220F331F441FEA
:100A1000551F12968D919C911397019713969C9355
:100A20008E931297203080E0380780E0480780E4FA
:100A3000580758F314962D933D934D935C93179755
:100A400008952F3F310579F4411551056105710570
:100A500019F484E08C93089564FF03C081E08C93C3
:100A600012C01C9210C02F57304013963C932E9307
:100A7000129783E08C9387E0440F551F661F771F02
:100A80008A95D1F7706414964D935D936D937C9322
:100A9000179708951F93DC01FB019C91923008F495
:100AA00047C08081823008F443C0943051F41196DD
:100AB0001C91843099F58181682F70E0611B710968
:100AC0003FC0843021F0923031F48230B9F181811D
:100AD000882389F12DC011961C9111978230F1F075
:100AE00081811817D9F412962D913C911397828128
:100AF00093818217930794F028173907BCF0149656
:100B00008D919D910D90BC91A02D248135814681C0
:100B10005781281739074A075B0718F4112341F05A
:100B20000AC082179307A407B50740F4112319F0F0
:100B300061E070E005C06FEF7FEF02C060E070E041
:100B4000CB011F910895DF93CF9300D000D0CDB794
:100B5000DEB789836A838981282F30E03C832B8329
:100B60008B819C8181309105D1F02B813C81223099
:100B700031052CF48B819C81009761F01EC02B8184
:100B80003C812230310581F08B819C81833091053D
:100B900081F013C0EAE3F0E08A8180830EC0E7E3CE
:100BA000F0E08A81808309C0E4E3F0E08A818083F9
:100BB00004C0E1E3F0E08A8180830F900F900F90F2
:100BC0000F90CF91DF910895DF93CF9300D000D0A5
:100BD000CDB7DEB789836A838981282F30E03C83D3
:100BE0002B838B819C8181309105D1F02B813C81BD
:100BF000223031052CF48B819C81009761F01EC05E
:100C00002B813C812230310581F08B819C818330A6
:100C1000910581F013C0EBE3F0E08A8180830EC080
:100C2000E8E3F0E08A81808309C0E5E3F0E08A81AF
:100C3000808304C0E2E3F0E08A8180830F900F900C
:100C40000F900F90CF91DF910895DF93CF9300D055
:100C500000D00F92CDB7DEB789838981282F30E08D
:100C60003C832B838B819C8181309105D1F02B813A
:100C70003C81223031052CF48B819C81009761F0FE
:100C80001FC02B813C812230310581F08B819C81FA
:100C90008330910581F014C0EBE3F0E090819A83FA
:100CA00010C0E8E3F0E020812A830BC0E5E3F0E028
:100CB00030813A8306C0E2E3F0E080818A8301C09C
:100CC00002C09A819D838D810F900F900F900F909D
:100CD0000F90CF91DF910895DF93CF93CDB7DEB71B
:100CE00027970FB6F894DEBF0FBECDBF89836A8306
:100CF0004B838A81882309F074C08B81282F30E0D0
:100D00003F832E838E819F818130910559F12E8101
:100D10003F81223031052CF48E819F81009769F04C
:100D2000D2C02E813F812230310589F18E819F8191
:100D30008330910509F440C0C6C0AAE3B0E0EAE3FD
:100D4000F0E08081482F8981282F30E081E090E019
:100D5000022E02C0880F991F0A94E2F7809584231F
:100D60008C93B1C0A7E3B0E0E7E3F0E08081482FC7
:100D70008981282F30E081E090E0022E02C0880FA8
:100D8000991F0A94E2F7809584238C939CC0A4E376
:100D9000B0E0E4E3F0E08081482F8981282F30E043
:100DA00081E090E0022E02C0880F991F0A94E2F7BA
:100DB000809584238C9387C0A1E3B0E0E1E3F0E069
:100DC0008081482F8981282F30E081E090E0022E39
:100DD00002C0880F991F0A94E2F7809584238C93B0
:100DE00072C08A81813009F06EC08B81282F30E07B
:100DF0003D832C838C819D818130910549F12C812B
:100E00003D81223031052CF48C819D81009761F069
:100E10005AC02C813D812230310571F18C819D8138
:100E200083309105E9F14FC0AAE3B0E0EAE3F0E0D6
:100E30008081482F8981282F30E081E090E0022EC8
:100E400002C0880F991F0A94E2F7842B8C933BC051
:100E5000A7E3B0E0E7E3F0E08081482F8981282F05
:100E600030E081E090E0022E02C0880F991F0A94C2
:100E7000E2F7842B8C9327C0A4E3B0E0E4E3F0E036
:100E80008081482F8981282F30E081E090E0022E78
:100E900002C0880F991F0A94E2F7842B8C9313C029
:100EA000A1E3B0E0E1E3F0E08081482F8981282FC1
:100EB00030E081E090E0022E02C0880F991F0A9472
:100EC000E2F7842B8C9327960FB6F894DEBF0FBE03
:100ED000CDBFCF91DF910895DF93CF93CDB7DEB72C
:100EE00027970FB6F894DEBF0FBECDBF89836A8304
:100EF0004B838A81813009F06FC08B81282F30E0CD
:100F00003F832E838E819F818130910549F12E810F
:100F10003F81223031052CF48E819F81009761F052
:100F2000D2C02E813F812230310571F18E819F81A7
:100F300083309105E9F1C7C0ABE3B0E0EBE3F0E04B
:100F40008081482F8981282F30E081E090E0022EB7
:100F500002C0880F991F0A94E2F7842B8C93B3C0C8
:100F6000A8E3B0E0E8E3F0E08081482F8981282FF2
:100F700030E081E090E0022E02C0880F991F0A94B1
:100F8000E2F7842B8C939FC0A5E3B0E0E5E3F0E0AB
:100F90008081482F8981282F30E081E090E0022E67
:100FA00002C0880F991F0A94E2F7842B8C938BC0A0
:100FB000A2E3B0E0E2E3F0E08081482F8981282FAE
:100FC00030E081E090E0022E02C0880F991F0A9461
:100FD000E2F7842B8C9377C08A81882309F073C051
:100FE0008B81282F30E03D832C838C819D81813043
:100FF000910559F12C813D81223031052CF48C81F1
:101000009D81009769F05FC02C813D8122303105C0
:1010100089F18C819D818330910509F440C053C0D2
:10102000ABE3B0E0EBE3F0E08081482F8981282F2B
:1010300030E081E090E0022E02C0880F991F0A94F0
:10104000E2F7809584238C933EC0A8E3B0E0E8E308
:10105000F0E08081482F8981282F30E081E090E006
:10106000022E02C0880F991F0A94E2F7809584230C
:101070008C9329C0A5E3B0E0E5E3F0E08081482F40
:101080008981282F30E081E090E0022E02C0880F95
:10109000991F0A94E2F7809584238C9314C0A2E3ED
:1010A000B0E0E2E3F0E08081482F8981282F30E032
:1010B00081E090E0022E02C0880F991F0A94E2F7A7
:1010C000809584238C9327960FB6F894DEBF0FBECD
:1010D000CDBFCF91DF910895DF93CF93CDB7DEB72A
:1010E00027970FB6F894DEBF0FBECDBF8A836B8300
:1010F0008B81282F30E03E832D834D815E814130EE
:10110000510559F18D819E818230910534F42D81F4
:101110003E812115310569F05CC04D815E81423010
:10112000510579F18D819E818330910509F43DC08F
:1011300050C0E9E3F0E08081282F30E08A81882FD9
:1011400090E0A90102C0559547958A95E2F7CA013A
:101150008170898359815C833DC0E6E3F0E0808142
:10116000282F30E08A81882F90E0A90102C0559590
:1011700047958A95E2F7CA018170898359815C831A
:1011800029C0E3E3F0E08081282F30E08A81882FB6
:1011900090E0A90102C0559547958A95E2F7CA01EA
:1011A0008170898359815C8315C0E0E3F0E0808120
:1011B000282F30E08A81882F90E0A90102C0559540
:1011C00047958A95E2F7CA018170898359815C83CA
:1011D00001C002C08C818F838F8127960FB6F8944F
:1011E000DEBF0FBECDBFCF91DF910895DF93CF93C8
:1011F000CDB7DEB7E0E2F0E08CE08083A6E5B0E0BA
:10120000E6E5F0E0808184608C93CF91DF910895D2
:10121000DF93CF93CDB7DEB7A6E5B0E0E6E5F0E02B
:10122000808180628C93A6E5B0E0E6E5F0E0808105
:1012300080688C93E6E5F0E080818823DCF7E1E2CA
:10124000F0E08081882F90E0887F90708830910551
:10125000B1F7CF91DF910895DF93CF93CDB7DEB78C
:10126000A6E5B0E0E6E5F0E0808180618C93A6E53C
:10127000B0E0E6E5F0E0808180688C93CF91DF916B
:101280000895DF93CF93CDB7DEB7A6E5B0E0E6E5EE
:10129000F0E0808180628C93A6E5B0E0E6E5F0E0C6
:1012A000808180688C93E6E5F0E080818823DCF71C
:1012B000E1E2F0E08081882F90E0887F90708031BB
:1012C0009105B1F7CF91DF910895DF93CF930F92FE
:1012D000CDB7DEB78983E3E2F0E08981880F8083B0
:1012E000A6E5B0E0E6E5F0E0808180688C93E6E575
:1012F000F0E080818823DCF7E1E2F0E08081882F54
:1013000090E0887F907088319105B1F70F90CF9170
:10131000DF910895DF93CF930F92CDB7DEB7898326
:10132000E3E2F0E08981882F90E0880F991F8160C7
:101330008083A6E5B0E0E6E5F0E080818F7D8C93C8
:10134000A6E5B0E0E6E5F0E0808180688C93E6E514
:10135000F0E080818823DCF7E1E2F0E08081882FF3
:1013600090E0887F907080349105B1F70F90CF9115
:10137000DF910895DF93CF930F92CDB7DEB78983C6
:10138000E3E2F0E089818083A6E5B0E0E6E5F0E005
:1013900080818F7D8C93A6E5B0E0E6E5F0E080816A
:1013A00080688C93E6E5F0E080818823DCF7E1E259
:1013B000F0E08081882F90E0887F907088329105DE
:1013C000B1F70F90CF91DF910895DF93CF93CDB711
:1013D000DEB7A6E5B0E0E6E5F0E080818F7D8C9396
:1013E000A6E5B0E0E6E5F0E0808180648C93A6E5B8
:1013F000B0E0E6E5F0E0808180688C93E6E5F0E01F
:1014000080818823DCF7E1E2F0E08081882F90E0A2
:10141000887F907080359105B1F7E3E2F0E080813C
:10142000CF91DF910895DF93CF93CDB7DEB7A7E3D8
:10143000B0E0E7E3F0E0808180618C93A7E3B0E067
:10144000E7E3F0E0808180628C93A7E3B0E0E7E31C
:10145000F0E080818F7B8C93A7E3B0E0E7E3F0E0DE
:10146000808180688C93EDE2F0E080E58083CF910D
:10147000DF910895DF93CF93CDB7DEB7A7E3B0E058
:10148000E7E3F0E080818F7E8C93A7E3B0E0E7E3B1
:10149000F0E080818F7D8C93A7E3B0E0E7E3F0E09C
:1014A000808180648C93A7E3B0E0E7E3F0E0808183
:1014B0008F778C93EDE2F0E080E48083CF91DF9131
:1014C0000895DF93CF930F92CDB7DEB78983EFE214
:1014D000F0E089818083EEE2F0E080818823DCF710
:1014E0000F90CF91DF910895DF93CF93CDB7DEB703
:1014F000EEE2F0E080818823DCF7EFE2F0E080812B
:10150000CF91DF910895DF93CF9300D00F92CDB7A5
:10151000DEB79B838A8319820EC08981282F30E031
:101520008A819B81FC01E20FF31F80810E94610A86
:1015300089818F5F89838981282F30E08A819B810F
:10154000FC01E20FF31F8081882339F70F900F9081
:101550000F90CF91DF9108950F931F93DF93CF9357
:1015600000D00F92CDB7DEB79B838A831982898121
:10157000282F30E08A819B818C01020F131F0E946B
:10158000740AF80180830FC089818F5F8983898104
:10159000282F30E08A819B818C01020F131F0E944B
:1015A000740AF80180838981282F30E08A819B8129
:1015B000FC01E20FF31F8081833231F78981282FEC
:1015C00030E08A819B81FC01E20FF31F10820F90B3
:1015D0000F900F90CF91DF911F910F910895DF939E
:1015E000CF9300D0CDB7DEB78CE090E09A838983AB
:1015F000E0E4F0E089819A81892F99278083E9E2EC
:10160000F0E089818083AAE2B0E0EAE2F0E0808144
:1016100080618C93AAE2B0E0EAE2F0E08081886029
:101620008C93AAE2B0E0EAE2F0E0808180688C93DB
:10163000AFE5B0E0EFE5F0E0808180688C93A0E456
:10164000B0E0E0E4F0E0808180688C93A0E4B0E05A
:10165000E0E4F0E08081877F8C93A0E4B0E0E0E4F8
:10166000F0E080818F7B8C93A0E4B0E0E0E4F0E0D8
:10167000808186608C93EBE2F0E010820F900F90F7
:10168000CF91DF910895DF93CF930F92CDB7DEB75F
:101690008983EBE2F0E08081882F90E08072907087
:1016A0000097B9F3ECE2F0E0898180830F90CF914D
:1016B000DF910895DF93CF93CDB7DEB7EBE2F0E093
:1016C00080818823DCF7ECE2F0E08081CF91DF912C
:1016D0000895DF93CF9300D000D0CDB7DEB79C83C1
:1016E0008B831A8219820FC029813A818B819C8158
:1016F000FC01E20FF31F80810E94430B89819A81D4
:1017000001969A83898329813A818B819C81FC018E
:10171000E20FF31F8081882339F70F900F900F900D
:101720000F90CF91DF910895DF93CF9300D000D039
:1017300000D0CDB7DEB79E838D831C821A821982BA
:1017400014C00E945A0B8B838B810E94430B29810A
:101750003A818D819E81FC01E20FF31F8B81808392
:1017600089819A8101969A83898389819A818230BD
:1017700091053CF30E94C50B26960FB6F894DEBF88
:101780000FBECDBFCF91DF910895DF93CF930F921E
:10179000CDB7DEB704C0ECE2F0E080818983EBE2F4
:1017A000F0E080818823BCF30F90CF91DF91089502
:1017B000DF93CF93CDB7DEB72E970FB6F894DEBF89
:1017C0000FBECDBF0E94F60880E090E0AAEFB4E41F
:1017D0008B879C87AD87BE876B857C858D859E8535
:1017E00020E030E04AE753E40E941F02DC01CB0115
:1017F0008F839887A987BA876F81788589859A852D
:1018000020E030E040E85FE30E94790388232CF475
:1018100081E090E09E838D833FC06F8178858985CC
:101820009A8520E03FEF4FE757E40E94190318160E
:101830004CF56B857C858D859E8520E030E040E20F
:1018400051E40E941F02DC01CB01BC01CD010E94CA
:101850004900DC01CB019E838D830FC089E190E0BC
:101860009C838B838B819C810197F1F79C838B8375
:101870008D819E8101979E838D838D819E810097AE
:1018800069F714C06F81788589859A850E9449001F
:10189000DC01CB019E838D838D819E819A83898318
:1018A00089819A810197F1F79A8389832E960FB6E1
:1018B000F894DEBF0FBECDBFCF91DF910895DF93C7
:1018C000CF9300D00F92CDB7DEB789836A834B8365
:1018D0000E9408098A8180650E9465098B810E94A7
:1018E000BA0989810E94BA090E942C090F900F90B1
:1018F0000F90CF91DF910895DF93CF9300D00F9297
:10190000CDB7DEB78A836B8319820E9408098A816A
:1019100080650E9465098B810E94BA090E94410975
:101920008A8180650E948A090E94E50989830E9454
:101930002C0989810F900F900F90CF91DF9108951E
:10194000DF93CF9300D0CDB7DEB71A824CC0EAE365
:10195000F0E08A81282F30E080E190E002C0880F1B
:10196000991F2A95E2F78083EBE3F0E08A81282F24
:1019700030E080E190E0022E02C0880F991F0A94A7
:10198000E2F780958083198228C0E9E3F0E0808146
:10199000282F30E08981882F90E0A90102C0559559
:1019A00047958A95E2F7CA0181709070009791F48B
:1019B0008981882F90E0880F991F880F991F982F91
:1019C0008A81890F8F5F0E94F80C0F900F90CF9142
:1019D000DF91089589818F5F898389818430A8F29E
:1019E0008A818F5F8A838A81843008F4B0CFADCF3B
:1019F000DF93CF9300D000D00F92CDB7DEB78983AD
:101A00008981282F30E03C832B838B819C81883017
:101A1000910509F470C02B813C81293031055CF5BA
:101A20008B819C818430910509F459C02B813C81C4
:101A3000253031059CF48B819C818230910509F41D
:101A400048C02B813C81233031050CF045C08B818F
:101A50009C818130910509F439C067C02B813C819C
:101A60002630310509F441C08B819C818730910576
:101A70000CF03EC037C02B813C812C30310509F47D
:101A800046C08B819C818D3091055CF42B813C811B
:101A90002A303105B1F18B819C818B309105A4F501
:101AA0002DC02B813C812E303105B9F18B819C8179
:101AB0008E3091057CF12B813C812F30310579F1FD
:101AC0008B819C818031910569F12FC097E09A83C9
:101AD0002DC028E02A832AC039E03A8327C08FE24C
:101AE0008A8324C094E09A8321C025E02A831EC003
:101AF00036E03A831BC08AE28A8318C091E09A8359
:101B000015C022E02A8312C033E03A830FC08DE271
:101B10008A830CC093E69A8309C01A8207C02DE31A
:101B20002A8304C03BE23A8301C002C08A818D83CC
:101B30008D810F900F900F900F900F90CF91DF91AC
:101B40000895DF93CF93CDB7DEB7E4E3F0E08FE302
:101B50008083A7E3B0E0E7E3F0E0808183608C93CB
:101B6000A1E3B0E0E1E3F0E080818C618C9382E05E
:101B70000E94C60D88E30E94C60D8CE00E94C60D2F
:101B800081E00E94C60DCF91DF910895DF93CF933E
:101B9000CDB7DEB7AB970FB6F894DEBF0FBECDBFA3
:101BA0008BA7A2E3B0E0E2E3F0E080818B7F8C932F
:101BB000A2E3B0E0E2E3F0E08081877F8C93E8E38A
:101BC000F0E08BA583708083E5E3F0E08BA58C7F4C
:101BD000808380E090E0A0E8BFE38FA398A7A9A747
:101BE000BAA76FA178A589A59AA520E030E04AE7B9
:101BF00053E40E941F02DC01CB018BA39CA3ADA385
:101C0000BEA36BA17CA18DA19EA120E030E040E8A5
:101C10005FE30E94790388232CF481E090E09AA38B
:101C200089A33FC06BA17CA18DA19EA120E03FEFC5
:101C30004FE757E40E94190318164CF56FA178A5D9
:101C400089A59AA520E030E040E251E40E941F02FD
:101C5000DC01CB01BC01CD010E944900DC01CB01BC
:101C60009AA389A30FC089E190E098A38F8F8F8DED
:101C700098A10197F1F798A38F8F89A19AA1019755
:101C80009AA389A389A19AA1009769F714C06BA1AF
:101C90007CA18DA19EA10E944900DC01CB019AA3E9
:101CA00089A389A19AA19E8F8D8F8D8D9E8D01977D
:101CB000F1F79E8F8D8FA2E3B0E0E2E3F0E0808148
:101CC00080618C9380E090E0A0E8BFE3898F9A8FD9
:101CD000AB8FBC8F698D7A8D8B8D9C8D20E030E031
:101CE0004AE753E40E941F02DC01CB018D8B9E8BDF
:101CF000AF8BB88F6D897E898F89988D20E030E019
:101D000040E85FE30E94790388232CF481E090E0AF
:101D10009C8B8B8B3FC06D897E898F89988D20E04D
:101D20003FEF4FE757E40E94190318164CF5698DF1
:101D30007A8D8B8D9C8D20E030E040E251E40E9452
:101D40001F02DC01CB01BC01CD010E944900DC0176
:101D5000CB019C8B8B8B0FC089E190E09A8B898B98
:101D600089899A890197F1F79A8B898B8B899C894C
:101D700001979C8B8B8B8B899C89009769F714C08A
:101D80006D897E898F89988D0E944900DC01CB0185
:101D90009C8B8B8B8B899C89988B8F878F8598895F
:101DA0000197F1F7988B8F87A2E3B0E0E2E3F0E0D0
:101DB00080818F7E8C9380E090E0A0E8BFE38B87EA
:101DC0009C87AD87BE876B857C858D859E8520E051
:101DD00030E04AE753E40E941F02DC01CB018F830D
:101DE0009887A987BA876F81788589859A8520E049
:101DF00030E040E85FE30E94790388232CF481E01F
:101E000090E09E838D833FC06F81788589859A8518
:101E100020E03FEF4FE757E40E94190318164CF5F6
:101E20006B857C858D859E8520E030E040E251E425
:101E30000E941F02DC01CB01BC01CD010E944900C0
:101E4000DC01CB019E838D830FC089E190E09C83F0
:101E50008B838B819C810197F1F79C838B838D8190
:101E60009E8101979E838D838D819E81009769F766
:101E700014C06F81788589859A850E944900DC01AC
:101E8000CB019E838D838D819E819A8389838981F5
:101E90009A810197F1F79A838983AB960FB6F894EC
:101EA000DEBF0FBECDBFCF91DF910895DF93CF93FB
:101EB000CDB7DEB7E9970FB6F894DEBF0FBECDBF42
:101EC00089AFA2E3B0E0E2E3F0E0808184608C932C
:101ED000A2E3B0E0E2E3F0E08081877F8C93A2E3AD
:101EE000B0E0E2E3F0E0808180618C9380E090E0FC
:101EF000A0E8BFE38DAB9EABAFABB8AF6DA97EA939
:101F00008FA998AD20E030E04AE753E40E941F0219
:101F1000DC01CB0189AB9AABABABBCAB69A97AA9AD
:101F20008BA99CA920E030E040E85FE30E947903A0
:101F300088232CF481E090E098AB8FA73FC069A97B
:101F40007AA98BA99CA920E03FEF4FE757E40E94B4
:101F5000190318164CF56DA97EA98FA998AD20E03C
:101F600030E040E251E40E941F02DC01CB01BC01E1
:101F7000CD010E944900DC01CB0198AB8FA70FC0B7
:101F800089E190E09EA78DA78DA59EA50197F1F709
:101F90009EA78DA78FA598A9019798AB8FA78FA50E
:101FA00098A9009769F714C069A97AA98BA99CA977
:101FB0000E944900DC01CB0198AB8FA78FA598A99F
:101FC0009CA78BA78BA59CA50197F1F79CA78BA736
:101FD000E8E3F0E089AD83708083E5E3F0E089AD6C
:101FE0008C7F808380E090E0A0E8BFE38FA398A778
:101FF000A9A7BAA76FA178A589A59AA520E030E086
:102000004AE753E40E941F02DC01CB018BA39CA38F
:10201000ADA3BEA36BA17CA18DA19EA120E030E069
:1020200040E85FE30E94790388232CF481E090E08C
:102030009AA389A33FC06BA17CA18DA19EA120E0A2
:102040003FEF4FE757E40E94190318164CF56FA1B4
:1020500078A589A59AA520E030E040E251E40E94ED
:102060001F02DC01CB01BC01CD010E944900DC0153
:10207000CB019AA389A30FC089E190E098A38F8F29
:102080008F8D98A10197F1F798A38F8F89A19AA1BD
:1020900001979AA389A389A19AA1009769F714C00F
:1020A0006BA17CA18DA19EA10E944900DC01CB0106
:1020B0009AA389A389A19AA19E8F8D8F8D8D9E8DC4
:1020C0000197F1F79E8F8D8FA2E3B0E0E2E3F0E09D
:1020D000808180618C9380E090E0A0E8BFE3898FED
:1020E0009A8FAB8FBC8F698D7A8D8B8D9C8D20E004
:1020F00030E04AE753E40E941F02DC01CB018D8BE4
:102100009E8BAF8BB88F6D897E898F89988D20E0EB
:1021100030E040E85FE30E94790388232CF481E0FB
:1021200090E09C8B8B8B3FC06D897E898F89988DC9
:1021300020E03FEF4FE757E40E94190318164CF5D3
:10214000698D7A8D8B8D9C8D20E030E040E251E4EA
:102150000E941F02DC01CB01BC01CD010E9449009D
:10216000DC01CB019C8B8B8B0FC089E190E09A8BBB
:10217000898B89899A890197F1F79A8B898B8B8949
:102180009C8901979C8B8B8B8B899C89009769F725
:1021900014C06D897E898F89988D0E944900DC0169
:1021A000CB019C8B8B8B8B899C89988B8F878F85A0
:1021B00098890197F1F7988B8F87A2E3B0E0E2E36B
:1021C000F0E080818F7E8C9380E090E0A0E8BFE318
:1021D0008B879C87AD87BE876B857C858D859E852B
:1021E00020E030E04AE753E40E941F02DC01CB010B
:1021F0008F839887A987BA876F81788589859A8523
:1022000020E030E040E85FE30E94790388232CF46B
:1022100081E090E09E838D833FC06F8178858985C2
:102220009A8520E03FEF4FE757E40E941903181604
:102230004CF56B857C858D859E8520E030E040E205
:1022400051E40E941F02DC01CB01BC01CD010E94C0
:102250004900DC01CB019E838D830FC089E190E0B2
:102260009C838B838B819C810197F1F79C838B836B
:102270008D819E8101979E838D838D819E810097A4
:1022800069F714C06F81788589859A850E94490015
:10229000DC01CB019E838D838D819E819A8389830E
:1022A00089819A810197F1F79A838983E9960FB61C
:1022B000F894DEBF0FBECDBFCF91DF910895DF93BD
:1022C000CF9300D00F92CDB7DEB79B838A8319825C
:1022D0000EC08981282F30E08A819B81FC01E20FAA
:1022E000F31F80810E94560F89818F5F89838981C6
:1022F000282F30E08A819B81FC01E20FF31F80814F
:10230000882339F70F900F900F90CF91DF910895A8
:10231000DF93CF9300D000D00F92CDB7DEB78A8382
:102320006B838A81282F30E03D832C838C819D81B3
:10233000009731F02C813D812130310521F006C01C
:102340008B81898303C08B81805C898389818068CC
:102350000E94C60D0F900F900F900F900F90CF918D
:10236000DF910895DF93CF9300D000D0CDB7DEB7D3
:1023700089836A835C834B8389816A810E94881187
:102380008B819C810E945F110F900F900F900F9096
:10239000CF91DF910895DF93CF93CDB7DEB76297EA
:1023A0000FB6F894DEBF0FBECDBF9A8B898B89899B
:1023B0009A899E012F5F3F4FB9014AE050E00E9489
:1023C000CE36CE0101960E945F1162960FB6F89448
:1023D000DEBF0FBECDBFCF91DF910895DF93CF93C6
:1023E000CDB7DEB781E00E94C60DCF91DF91089591
:1023F0000F931F93DF93CF93CDB7DEB727970FB619
:10240000F894DEBF0FBECDBF9C838B837E836D832C
:102410008B819C810E94C5368C018D819E810E949A
:10242000C5360817190739F58B819C810E94C5367E
:102430008A83198219C08981282F30E08B819C8181
:10244000FC01E20FF31F40818981282F30E08D814C
:102450009E81FC01E20FF31F8081481711F01F825B
:102460000BC089818F5F898399818A81981718F3BE
:1024700081E08F8301C01F828F8127960FB6F89469
:10248000DEBF0FBECDBFCF91DF911F910F91089599
:102490001F920F920FB60F9211248F93DF93CF9359
:1024A000CDB7DEB781E080934602CF91DF918F9167
:1024B0000F900FBE0F901F9018951F920F920FB69E
:1024C0000F9211248F93DF93CF93CDB7DEB782E0C5
:1024D00080934602CF91DF918F910F900FBE0F90A6
:1024E0001F9018950F931F93DF93CF93CDB7DEB74F
:1024F000CA57D2400FB6F894DEBF0FBECDBFFE0163
:10250000E35CFD4F1082FE01E859FD4F1082FE0191
:10251000E85CFD4F1082118212821382FE01EF5C93
:10252000FD4F10820E94D80B0E94130A0E94A10D39
:10253000E8E3F0E0908182E060E0492F0E946C06C1
:102540000E94EF0AABE5B0E0EBE5F0E0808180624D
:102550008C93A4E5B0E0E4E5F0E0808180648C93A6
:10256000E2E3F0E08FEF808378940E94EE118AE03E
:102570000E94610A0C9461348AE00E94610A0E9400
:10258000EE1120E630E080E062E0A9010E94B21185
:10259000FE01E35DFD4F80E090E0AAE7B4E48083B4
:1025A0009183A283B3838E01075D1D4FFE01E35D1E
:1025B000FD4F608171818281938120E030E04AE7A4
:1025C00053E40E941F02DC01CB01F8018083918358
:1025D000A283B383FE01E75DFD4F6081718182813B
:1025E000938120E030E040E85FE30E947903882394
:1025F00044F4FE01E95DFD4F81E090E0918380832A
:1026000064C0FE01E75DFD4F60817181828193812D
:1026100020E03FEF4FE757E40E94190318160CF033
:1026200043C0FE01E35DFD4F608171818281938132
:1026300020E030E040E251E40E941F02DC01CB01C7
:102640008E01095D1D4FBC01CD010E944900DC01D6
:10265000CB01F801918380831FC0FE01EB5DFD4F2C
:1026600089E190E091838083FE01EB5DFD4F8081E5
:1026700091810197F1F7FE01EB5DFD4F918380831E
:10268000DE01A95DBD4FFE01E95DFD4F80819181B5
:10269000019711969C938E93FE01E95DFD4F808119
:1026A00091810097D1F628C08E01095D1D4FFE0172
:1026B000E75DFD4F60817181828193810E944900B5
:1026C000DC01CB01F80191838083DE01AD5DBD4F5C
:1026D000FE01E95DFD4F8081918111969C938E935F
:1026E000FE01ED5DFD4F808191810197F1F7FE01C3
:1026F000ED5DFD4F91838083FE01EF5CFD4F808196
:10270000882311F00C940C2B8AE00E94610A0E942D
:10271000EE112EE630E080E062E0A9010E94B211E5
:1027200029E730E081E062E0A9010E94B2110E9435
:10273000A00CFE01E859FD4F8083FE01E859FD4FD2
:102740008081882309F084C68AE00E94610A0E9481
:10275000EE1124E830E080E062E0A9010E94B211AD
:10276000FE01E15EFD4F80E090E0AAE7B4E48083E3
:102770009183A283B3838E01055E1D4FFE01E15E4E
:10278000FD4F608171818281938120E030E04AE7D2
:1027900053E40E941F02DC01CB01F8018083918386
:1027A000A283B383FE01E55EFD4F6081718182816A
:1027B000938120E030E040E85FE30E9479038823C2
:1027C00044F4FE01E75EFD4F81E090E09183808359
:1027D00064C0FE01E55EFD4F60817181828193815D
:1027E00020E03FEF4FE757E40E94190318160CF062
:1027F00043C0FE01E15EFD4F608171818281938162
:1028000020E030E040E251E40E941F02DC01CB01F5
:102810008E01075E1D4FBC01CD010E944900DC0105
:10282000CB01F801918380831FC0FE01E95EFD4F5B
:1028300089E190E091838083FE01E95EFD4F808114
:1028400091810197F1F7FE01E95EFD4F918380834D
:10285000DE01A75EBD4FFE01E75EFD4F80819181E5
:10286000019711969C938E93FE01E75EFD4F808148
:1028700091810097D1F627C08E01075E1D4FFE01A2
:10288000E55EFD4F60817181828193810E944900E4
:10289000DC01CB01F80191838083DE01AB5EBD4F8B
:1028A000FE01E75EFD4F808191818D939C93FE0137
:1028B000EB5EFD4F808191810197F1F7FE01EB5EA8
:1028C000FD4F918380830E94EE1180E990E00E9489
:1028D0005F1120EA30E081E060E0A9010E94B211BE
:1028E0000E94A00CFE01E15CFD4F8083FE01E15CD3
:1028F000FD4F8081882F90E001979E01205C3D4F25
:10290000880F991F880F991FF901E80FF91F20817F
:10291000318142815381FE01E15CFD4F8081882F2E
:1029200090E0A0E0B0E0281739074A075B0709F4F8
:10293000ABC48AE00E94610A0E94EE112AEA30E0EC
:1029400080E062E0A9010E94B211FE01EF5EFD4F3E
:1029500080E090E0AAE7B4E480839183A283B3830C
:102960008E01035F1D4FFE01EF5EFD4F608171819F
:102970008281938120E030E04AE753E40E941F0205
:10298000DC01CB01F80180839183A283B383FE0134
:10299000E35FFD4F608171818281938120E030E0AF
:1029A00040E85FE30E947903882344F4FE01E55F79
:1029B000FD4F81E090E09183808364C0FE01E35F7E
:1029C000FD4F608171818281938120E03FEF4FE76D
:1029D00057E40E94190318160CF043C0FE01EF5E85
:1029E000FD4F608171818281938120E030E040E27F
:1029F00051E40E941F02DC01CB018E01055F1D4FD7
:102A0000BC01CD010E944900DC01CB01F80191839A
:102A100080831FC0FE01E75FFD4F89E190E0918355
:102A20008083FE01E75FFD4F808191810197F1F77F
:102A3000FE01E75FFD4F91838083DE01A55FBD4FFF
:102A4000FE01E55FFD4F80819181019711969C9376
:102A50008E93FE01E55FFD4F808191810097D1F655
:102A600027C08E01055F1D4FFE01E35FFD4F6081B2
:102A70007181828193810E944900DC01CB01F801C0
:102A800091838083DE01A95FBD4FFE01E55FFD4FAD
:102A9000808191818D939C93FE01E95FFD4F808140
:102AA00091810197F1F7FE01E95FFD4F91838083EA
:102AB0000E94EE1127EB30E080E062E0A9010E9465
:102AC000B211FE01ED5FFD4F80E090E0AAE7B4E4B3
:102AD00080839183A283B3838E0101501E4FFE0138
:102AE000ED5FFD4F608171818281938120E030E054
:102AF0004AE753E40E941F02DC01CB01F801808306
:102B00009183A283B383FE01E150FE4F6081718106
:102B10008281938120E030E040E85FE30E94790306
:102B2000882344F4FE01E350FE4F81E090E091835E
:102B3000808364C0FE01E150FE4F6081718182811B
:102B4000938120E03FEF4FE757E40E9419031816E6
:102B50000CF043C0FE01ED5FFD4F60817181828109
:102B6000938120E030E040E251E40E941F02DC014A
:102B7000CB018E0103501E4FBC01CD010E944900C4
:102B8000DC01CB01F801918380831FC0FE01E55079
:102B9000FE4F89E190E091838083FE01E550FE4F76
:102BA000808191810197F1F7FE01E550FE4F9183FD
:102BB0008083DE01A350BE4FFE01E350FE4F8081B3
:102BC0009181019711969C938E93FE01E350FE4FE5
:102BD000808191810097D1F627C08E0103501E4F4E
:102BE000FE01E150FE4F60817181828193810E94DC
:102BF0004900DC01CB01F80191838083DE01A750FD
:102C0000BE4FFE01E350FE4F808191818D939C93D6
:102C1000FE01E750FE4F808191810197F1F7FE019F
:102C2000E750FE4F918380830E94EE1185EC90E087
:102C30000E945F11FE01E95CFD4F1082D7C28EE059
:102C40000E94C60DFE01EB50FE4F80E090E0A8E42C
:102C5000B3E480839183A283B3838E010F501E4F10
:102C6000FE01EB50FE4F608171818281938120E0F3
:102C700030E04AE753E40E941F02DC01CB01F80177
:102C800080839183A283B383FE01EF50FE4F608166
:102C900071818281938120E030E040E85FE30E940F
:102CA0007903882344F4FE01E151FE4F81E090E076
:102CB0009183808364C0FE01EF50FE4F608171817B
:102CC0008281938120E03FEF4FE757E40E94190390
:102CD00018160CF043C0FE01EB50FE4F608171816D
:102CE0008281938120E030E040E251E40E941F02A3
:102CF000DC01CB018E0101511E4FBC01CD010E94B0
:102D00004900DC01CB01F801918380831FC0FE01E3
:102D1000E351FE4F89E190E091838083FE01E3510E
:102D2000FE4F808191810197F1F7FE01E351FE4F43
:102D300091838083DE01A151BE4FFE01E151FE4F20
:102D400080819181019711969C938E93FE01E151B0
:102D5000FE4F808191810097D1F627C08E010151ED
:102D60001E4FFE01EF50FE4F608171818281938181
:102D70000E944900DC01CB01F80191838083DE01D0
:102D8000A551BE4FFE01E151FE4F808191818D938F
:102D90009C93FE01E551FE4F808191810197F1F7EF
:102DA000FE01E551FE4F918380838CE00E94C60DA9
:102DB000FE01E951FE4F80E090E0AAEFB3E480838A
:102DC0009183A283B3838E010D511E4FFE01E95101
:102DD000FE4F608171818281938120E030E04AE77B
:102DE00053E40E941F02DC01CB01F8018083918330
:102DF000A283B383FE01ED51FE4F60817181828118
:102E0000938120E030E040E85FE30E94790388236B
:102E100044F4FE01EF51FE4F81E090E09183808306
:102E200064C0FE01ED51FE4F60817181828193810A
:102E300020E03FEF4FE757E40E94190318160CF00B
:102E400043C0FE01E951FE4F60817181828193810F
:102E500020E030E040E251E40E941F02DC01CB019F
:102E60008E010F511E4FBC01CD010E944900DC01B3
:102E7000CB01F801918380831FC0FE01E152FE4F18
:102E800089E190E091838083FE01E152FE4F8081D1
:102E900091810197F1F7FE01E152FE4F918380830A
:102EA000DE01AF51BE4FFE01EF51FE4F8081918197
:102EB000019711969C938E93FE01EF51FE4F8081F6
:102EC00091810097D1F627C08E010F511E4FFE0150
:102ED000ED51FE4F60817181828193810E94490092
:102EE000DC01CB01F80191838083DE01A352BE4F48
:102EF000FE01EF51FE4F808191818D939C93FE01E5
:102F0000E352FE4F808191810197F1F7FE01E35278
:102F1000FE4F918380830E94A00CFE01EA5CFD4F6E
:102F20008083FE01EA5CFD4F8081882F90E00E9443
:102F3000CB11FE01E752FE4F80E090E0A8E4B3E43D
:102F400080839183A283B3838E010B521E4FFE01B7
:102F5000E752FE4F608171818281938120E030E0F1
:102F60004AE753E40E941F02DC01CB01F801808391
:102F70009183A283B383FE01EB52FE4F6081718186
:102F80008281938120E030E040E85FE30E94790392
:102F9000882344F4FE01ED52FE4F81E090E09183DE
:102FA000808364C0FE01EB52FE4F6081718182819B
:102FB000938120E03FEF4FE757E40E941903181672
:102FC0000CF043C0FE01E752FE4F608171818281A7
:102FD000938120E030E040E251E40E941F02DC01D6
:102FE000CB018E010D521E4FBC01CD010E94490044
:102FF000DC01CB01F801918380831FC0FE01EF52F9
:10300000FE4F89E190E091838083FE01EF52FE4FF5
:10301000808191810197F1F7FE01EF52FE4F91837C
:103020008083DE01AD52BE4FFE01ED52FE4F808126
:103030009181019711969C938E93FE01ED52FE4F64
:10304000808191810097D1F627C08E010D521E4FCD
:10305000FE01EB52FE4F60817181828193810E945B
:103060004900DC01CB01F80191838083DE01A1538B
:10307000BE4FFE01ED52FE4F808191818D939C9356
:10308000FE01E153FE4F808191810197F1F7FE012E
:10309000E153FE4F91838083FE01E95CFD4F808107
:1030A000982F965F20ED30E080E0692FA9010E9403
:1030B000B211FE01E15CFD4F8081882F90E08C0110
:1030C00001501040FE01E15CFD4F8081882F90E0AF
:1030D00001979E012C5A3D4F880F991F880F991F09
:1030E000F901E80FF91F2081318142815381FE01EE
:1030F000EA5CFD4F8081882F90E0A0E0B0E0280FCF
:10310000391F4A1F5B1FBE016C5A7D4FC801880FD3
:10311000991F880F991FFB01E80FF91F2083318346
:1031200042835383FE01E15CFD4F8081882F90E054
:103130008C0101501040FE01E15CFD4F8081882F21
:1031400090E001979E012C5A3D4F880F991F880FE0
:10315000991FF901E80FF91F80819181A281B38144
:103160002AE030E040E050E0BC01CD010E944D3645
:103170009B01AC01BE016C5A7D4FC801880F991F9D
:10318000880F991FFB01E80FF91F208331834283C9
:103190005383FE01E15CFD4F8081882F90E0DC01CC
:1031A0001197FE01E15CFD4F8081282F30E040E067
:1031B00050E0BE01605C7D4FCD01880F991F880FE4
:1031C000991FFB01E80FF91F20833183428353834A
:1031D000FE01E859FD4F81E08083DE01A95CBD4F0F
:1031E000FE01E95CFD4F80818F5F8C93FE01E95CFD
:1031F000FD4F8081843008F422CDFE01E15CFD4F5B
:103200008081882F90E08C0101501040FE01E15C2C
:10321000FD4F8081882F90E001979E012C5A3D4FF1
:10322000880F991F880F991FF901E80FF91F8081F6
:103230009181A281B3812AE030E040E050E0BC01FE
:10324000CD010E946C36DA01C9019C01AD01BE01BD
:103250006C5A7D4FC801880F991F880F991FFB0179
:10326000E80FF91F2083318342835383CE01805CB2
:103270009D4F982F9E012C5A3D4F81E0692FA90147
:103280000E94FA340C945934FE01E15CFD4F8081B8
:10329000882F90E001979E01205C3D4F880F991F79
:1032A000880F991FF901E80FF91F208131814281B0
:1032B0005381FE01E15CFD4F8081882F90E0A0E00A
:1032C000B0E0281739074A075B0711F00C9459340E
:1032D0000E94EE1122ED30E080E060E0A9010E9442
:1032E000B211FE01E553FE4F80E090E0AAEFB3E497
:1032F00080839183A283B3838E0109531E4FFE0105
:10330000E553FE4F608171818281938120E030E03E
:103310004AE753E40E941F02DC01CB01F8018083DD
:103320009183A283B383FE01E953FE4F60817181D3
:103330008281938120E030E040E85FE30E947903DE
:10334000882344F4FE01EB53FE4F81E090E091832B
:10335000808365C0FE01E953FE4F608171818281E7
:10336000938120E03FEF4FE757E40E9419031816BE
:103370000CF044C0FE01E553FE4F608171818281F3
:10338000938120E030E040E251E40E941F02DC0122
:10339000CB018E010B531E4FBC01CD010E94490091
:1033A000DC01CB01F801918380831FC0FE01ED5346
:1033B000FE4F89E190E091838083FE01ED53FE4F43
:1033C000808191810197F1F7FE01ED53FE4F9183CA
:1033D0008083DE01AB53BE4FFE01EB53FE4F808175
:1033E0009181019711969C938E93FE01EB53FE4FB2
:1033F000808191810097D1F60C94F3348E010B53A8
:103400001E4FFE01E953FE4F6081718182819381DD
:103410000E944900DC01CB01F80191838083DE0129
:10342000AF53BE4FFE01EB53FE4F80819181119649
:103430009C938E93FE01EF53FE4F80819181019703
:10344000F1F7FE01EF53FE4F918380830C94F33428
:10345000FE01E859FD4F8081813011F00C94593400
:103460008AE00E94610A0E94EE1124E830E080E0C8
:1034700062E0A9010E94B211FE01E354FE4F80E018
:1034800090E0AAE7B4E480839183A283B3838E01A2
:1034900007541E4FFE01E354FE4F6081718182810B
:1034A000938120E030E04AE753E40E941F02DC01F0
:1034B000CB01F80180839183A283B383FE01E7549B
:1034C000FE4F608171818281938120E030E040E88D
:1034D0005FE30E947903882344F4FE01E954FE4F20
:1034E00081E090E09183808364C0FE01E754FE4F49
:1034F000608171818281938120E03FEF4FE757E443
:103500000E94190318160CF043C0FE01E354FE4F4D
:10351000608171818281938120E030E040E251E45A
:103520000E941F02DC01CB018E0109541E4FBC0119
:10353000CD010E944900DC01CB01F8019183808319
:103540001FC0FE01EB54FE4F89E190E09183808320
:10355000FE01EB54FE4F808191810197F1F7FE014E
:10356000EB54FE4F91838083DE01A954BE4FFE01D0
:10357000E954FE4F80819181019711969C938E931F
:10358000FE01E954FE4F808191810097D1F627C05A
:103590008E0109541E4FFE01E754FE4F6081718178
:1035A000828193810E944900DC01CB01F801918363
:1035B0008083DE01AD54BE4FFE01E954FE4F808191
:1035C00091818D939C93FE01ED54FE4F80819181FA
:1035D0000197F1F7FE01ED54FE4F918380830E9425
:1035E000EE1180E990E00E945F1120EA30E081E076
:1035F00060E0A9010E94B2110E94A00CFE01E15CF2
:10360000FD4F8083FE01E15CFD4F8081882F90E0BB
:1036100001979E01205C3D4F880F991F880F991FCD
:10362000F901E80FF91F2081318142815381FE01A8
:10363000E15CFD4F8081882F90E0A0E0B0E028178A
:1036400039074A075B0731F08DED90E00E945F116A
:103650000C945934FE01E155FE4F80E090E0AAEF52
:10366000B3E480839183A283B3838E0105551E4FFB
:10367000FE01E155FE4F608171818281938120E0DE
:1036800030E04AE753E40E941F02DC01CB01F8015D
:1036900080839183A283B383FE01E555FE4F608151
:1036A00071818281938120E030E040E85FE30E94F5
:1036B0007903882344F4FE01E755FE4F81E090E052
:1036C0009183808364C0FE01E555FE4F6081718166
:1036D0008281938120E03FEF4FE757E40E94190376
:1036E00018160CF043C0FE01E155FE4F6081718158
:1036F0008281938120E030E040E251E40E941F0289
:10370000DC01CB018E0107551E4FBC01CD010E948B
:103710004900DC01CB01F801918380831FC0FE01C9
:10372000E955FE4F89E190E091838083FE01E955E0
:10373000FE4F808191810197F1F7FE01E955FE4F1F
:1037400091838083DE01A755BE4FFE01E755FE4FF2
:1037500080819181019711969C938E93FE01E7558C
:10376000FE4F808191810097D1F627C08E010755C9
:103770001E4FFE01E555FE4F60817181828193816C
:103780000E944900DC01CB01F80191838083DE01B6
:10379000AB55BE4FFE01E755FE4F808191818D9361
:1037A0009C93FE01EB55FE4F808191810197F1F7CB
:1037B000FE01EB55FE4F918380830E94EE1180EF56
:1037C00090E00E945F1122E031E081E060E0A90119
:1037D0000E94B211FE01EF55FE4F80E090E0AAE793
:1037E000B4E480839183A283B3838E0103561E4F7A
:1037F000FE01EF55FE4F608171818281938120E04F
:1038000030E04AE753E40E941F02DC01CB01F801DB
:1038100080839183A283B383FE01E356FE4F6081D0
:1038200071818281938120E030E040E85FE30E9473
:103830007903882344F4FE01E556FE4F81E090E0D1
:103840009183808364C0FE01E356FE4F60817181E5
:103850008281938120E03FEF4FE757E40E941903F4
:1038600018160CF043C0FE01EF55FE4F60817181C8
:103870008281938120E030E040E251E40E941F0207
:10388000DC01CB018E0105561E4FBC01CD010E940B
:103890004900DC01CB01F801918380831FC0FE0148
:1038A000E756FE4F89E190E091838083FE01E75661
:1038B000FE4F808191810197F1F7FE01E756FE4F9F
:1038C00091838083DE01A556BE4FFE01E556FE4F73
:1038D00080819181019711969C938E93FE01E5560C
:1038E000FE4F808191810097D1F627C08E01055649
:1038F0001E4FFE01E356FE4F6081718182819381EC
:103900000E944900DC01CB01F80191838083DE0134
:10391000A956BE4FFE01E556FE4F808191818D93E1
:103920009C93FE01E956FE4F808191810197F1F74A
:10393000FE01E956FE4F918380830E94A00CFE0198
:10394000E45CFD4F8083FE01E45CFD4F8081282F05
:1039500030E0C758DD4F39832883C957D240C75854
:10396000DD4F88819981C957D2408130910561F03E
:10397000C758DD4FE881F981C957D240E230F105DF
:1039800009F409C60C9459348AE00E94610AFE01C8
:10399000E35CFD4F1082F2C50E94EE1185EC90E0D1
:1039A0000E945F110E94A00CFE01EA5CFD4F808323
:1039B000FE01E95CFD4F10827EC28EE00E94C60DC2
:1039C000FE01ED56FE4F80E090E0A8E4B3E4808372
:1039D0009183A283B3838E0101571E4FFE01ED56E2
:1039E000FE4F608171818281938120E030E04AE75F
:1039F00053E40E941F02DC01CB01F8018083918314
:103A0000A283B383FE01E157FE4F60817181828101
:103A1000938120E030E040E85FE30E94790388234F
:103A200044F4FE01E357FE4F81E090E091838083F0
:103A300064C0FE01E157FE4F6081718182819381F4
:103A400020E03FEF4FE757E40E94190318160CF0EF
:103A500043C0FE01ED56FE4F6081718182819381EA
:103A600020E030E040E251E40E941F02DC01CB0183
:103A70008E0103571E4FBC01CD010E944900DC019D
:103A8000CB01F801918380831FC0FE01E557FE4FF3
:103A900089E190E091838083FE01E557FE4F8081AC
:103AA00091810197F1F7FE01E557FE4F91838083E5
:103AB000DE01A357BE4FFE01E357FE4F8081918187
:103AC000019711969C938E93FE01E357FE4F8081E0
:103AD00091810097D1F627C08E0103571E4FFE013A
:103AE000E157FE4F60817181828193810E9449007C
:103AF000DC01CB01F80191838083DE01A757BE4F23
:103B0000FE01E357FE4F808191818D939C93FE01CE
:103B1000E757FE4F808191810197F1F7FE01E7574A
:103B2000FE4F918380838CE00E94C60DFE01EB570F
:103B3000FE4F80E090E0AAEFB3E480839183A283FC
:103B4000B3838E010F571E4FFE01EB57FE4F60816E
:103B500071818281938120E030E04AE753E40E9442
:103B60001F02DC01CB01F80180839183A283B38320
:103B7000FE01EF57FE4F608171818281938120E0C9
:103B800030E040E85FE30E947903882344F4FE01BB
:103B9000E158FE4F81E090E09183808364C0FE0194
:103BA000EF57FE4F608171818281938120E03FEF6A
:103BB0004FE757E40E94190318160CF043C0FE01AA
:103BC000EB57FE4F608171818281938120E030E06C
:103BD00040E251E40E941F02DC01CB018E0101583A
:103BE0001E4FBC01CD010E944900DC01CB01F80150
:103BF000918380831FC0FE01E358FE4F89E190E06E
:103C000091838083FE01E358FE4F8081918101976B
:103C1000F1F7FE01E358FE4F91838083DE01A15846
:103C2000BE4FFE01E158FE4F8081918101971196B0
:103C30009C938E93FE01E158FE4F80819181009705
:103C4000D1F627C08E0101581E4FFE01EF57FE4FDF
:103C500060817181828193810E944900DC01CB01E6
:103C6000F80191838083DE01A558BE4FFE01E15823
:103C7000FE4F808191818D939C93FE01E558FE4F0C
:103C8000808191810197F1F7FE01E558FE4F918304
:103C900080830E94A00CFE01EA5CFD4F8083FE0140
:103CA000EA5CFD4F80818A3008F0C8C0FE01EA5C02
:103CB000FD4F8081882F90E00E94CB11FE01E958D2
:103CC000FE4F80E090E0A8E4B3E480839183A28378
:103CD000B3838E010D581E4FFE01E958FE4F6081DF
:103CE00071818281938120E030E04AE753E40E94B1
:103CF0001F02DC01CB01F80180839183A283B3838F
:103D0000FE01ED58FE4F608171818281938120E038
:103D100030E040E85FE30E947903882344F4FE0129
:103D2000EF58FE4F81E090E09183808364C0FE01F4
:103D3000ED58FE4F608171818281938120E03FEFD9
:103D40004FE757E40E94190318160CF043C0FE0118
:103D5000E958FE4F608171818281938120E030E0DB
:103D600040E251E40E941F02DC01CB018E010F589A
:103D70001E4FBC01CD010E944900DC01CB01F801BE
:103D8000918380831FC0FE01E159FE4F89E190E0DD
:103D900091838083FE01E159FE4F808191810197DB
:103DA000F1F7FE01E159FE4F91838083DE01AF58A8
:103DB000BE4FFE01EF58FE4F808191810197119611
:103DC0009C938E93FE01EF58FE4F80819181009766
:103DD000D1F627C08E010F581E4FFE01ED58FE4F41
:103DE00060817181828193810E944900DC01CB0155
:103DF000F80191838083DE01A359BE4FFE01EF5885
:103E0000FE4F808191818D939C93FE01E359FE4F7B
:103E1000808191810197F1F7FE01E359FE4F918373
:103E20008083FE01E95CFD4F8081982F965F20ED35
:103E300030E080E0692FA9010E94B211FE01EA5C26
:103E4000FD4F8081282F30E040E050E0BE01685CEB
:103E50007D4FFE01E85CFD4F80819181A281B3819D
:103E6000820F931FA41FB51FFB0180839183A28340
:103E7000B3838E01085C1D4FFE01E85CFD4F80811D
:103E80009181A281B3812AE030E040E050E0BC01A2
:103E9000CD010E944D36DC01CB01F8018083918376
:103EA000A283B383DE01A95CBD4FFE01E95CFD4F37
:103EB00080818F5F8C93FE01E95CFD4F80818430AF
:103EC00008F47BCD8E01085C1D4FFE01E85CFD4FC0
:103ED00080819181A281B3812AE030E040E050E00E
:103EE000BC01CD010E946C36DA01C901F801808362
:103EF0009183A283B383FE01E15CFD4F8081882F13
:103F000090E001979E012C5A3D4F880F991F880F12
:103F1000991FF901E80FF91F2081318142815381F6
:103F2000FE01E85CFD4F80819181A281B381281759
:103F300039074A075B0709F092C10E94EE1120E69B
:103F400030E080E062E0A9010E94B211FE01E75971
:103F5000FE4F80E090E0AAEFB3E480839183A283D8
:103F6000B3838E010B591E4FFE01E759FE4F60814E
:103F700071818281938120E030E04AE753E40E941E
:103F80001F02DC01CB01F80180839183A283B383FC
:103F9000FE01EB59FE4F608171818281938120E0A7
:103FA00030E040E85FE30E947903882344F4FE0197
:103FB000ED59FE4F81E090E09183808364C0FE0163
:103FC000EB59FE4F608171818281938120E03FEF48
:103FD0004FE757E40E94190318160CF043C0FE0186
:103FE000E759FE4F608171818281938120E030E04A
:103FF00040E251E40E941F02DC01CB018E010D5909
:104000001E4FBC01CD010E944900DC01CB01F8012B
:10401000918380831FC0FE01EF59FE4F89E190E03C
:1040200091838083FE01EF59FE4F8081918101973A
:10403000F1F7FE01EF59FE4F91838083DE01AD5908
:10404000BE4FFE01ED59FE4F80819181019711967F
:104050009C938E93FE01ED59FE4F808191810097D4
:10406000D1F627C08E010D591E4FFE01EB59FE4FB0
:1040700060817181828193810E944900DC01CB01C2
:10408000F80191838083DE01A15ABE4FFE01ED59F4
:10409000FE4F808191818D939C93FE01E15AFE4FEA
:1040A000808191810197F1F7FE01E15AFE4F9183E2
:1040B000808387E00E94610AFE01E55AFE4F80E09E
:1040C00090E0AAEFB4E480839183A283B3838E014E
:1040D000095A1E4FFE01E55AFE4F608171818281AF
:1040E000938120E030E04AE753E40E941F02DC01A4
:1040F000CB01F80180839183A283B383FE01E95A47
:10410000FE4F608171818281938120E030E040E840
:104110005FE30E947903882344F4FE01EB5AFE4FCB
:1041200081E090E09183808364C0FE01E95AFE4FF4
:10413000608171818281938120E03FEF4FE757E4F6
:104140000E94190318160CF043C0FE01E55AFE4FF9
:10415000608171818281938120E030E040E251E40E
:104160000E941F02DC01CB018E010B5A1E4FBC01C5
:10417000CD010E944900DC01CB01F80191838083CD
:104180001FC0FE01ED5AFE4F89E190E091838083CC
:10419000FE01ED5AFE4F808191810197F1F7FE01FA
:1041A000ED5AFE4F91838083DE01AB5ABE4FFE0174
:1041B000EB5AFE4F80819181019711969C938E93CB
:1041C000FE01EB5AFE4F808191810097D1F628C005
:1041D0008E010B5A1E4FFE01E95AFE4F608171811C
:1041E000828193810E944900DC01CB01F801918317
:1041F0008083DE01AF5ABE4FFE01EB5AFE4F808135
:10420000918111969C938E93FE01EF5AFE4F80810F
:1042100091810197F1F7FE01EF5AFE4F9183808360
:10422000FE01E85CFD4F1082118212821382FE01B2
:10423000E35CFD4F1082FE01EE5CFD4F81E0808368
:10424000FE01EF5CFD4F82E08083FE01EA5CFD4FE2
:104250001082FE01E35CFD4F85E080838FC18AE020
:104260000E94610A0E94EE1184E191E00E945F11B8
:10427000FE01E35BFE4F80E090E0AAEFB3E48083B1
:104280009183A283B3838E01075B1E4FFE01E35B24
:10429000FE4F608171818281938120E030E04AE7A6
:1042A00053E40E941F02DC01CB01F801808391835B
:1042B000A283B383FE01E75BFE4F6081718182813F
:1042C000938120E030E040E85FE30E947903882397
:1042D00044F4FE01E95BFE4F81E090E0918380832E
:1042E00064C0FE01E75BFE4F608171818281938132
:1042F00020E03FEF4FE757E40E94190318160CF037
:1043000043C0FE01E35BFE4F608171818281938136
:1043100020E030E040E251E40E941F02DC01CB01CA
:104320008E01095B1E4FBC01CD010E944900DC01DA
:10433000CB01F801918380831FC0FE01EB5BFE4F30
:1043400089E190E091838083FE01EB5BFE4F8081E9
:1043500091810197F1F7FE01EB5BFE4F9183808322
:10436000DE01A95BBE4FFE01E95BFE4F80819181BA
:10437000019711969C938E93FE01E95BFE4F80811D
:1043800091810097D1F627C08E01095B1E4FFE0177
:10439000E75BFE4F60817181828193810E944900B9
:1043A000DC01CB01F80191838083DE01AD5BBE4F60
:1043B000FE01E95BFE4F808191818D939C93FE010C
:1043C000ED5BFE4F808191810197F1F7FE01ED5B7E
:1043D000FE4F91838083DE01A35CBD4FFE01E35C51
:1043E000FD4F80818F5F8C93FE01E35CFD4F8081E8
:1043F000843009F0C3C086E00E94610A0E94EE1179
:1044000086E291E00E945F11FE01E15CFE4F80E0D8
:1044100090E0AAEFB4E480839183A283B3838E01FA
:10442000055C1E4FFE01E15CFE4F6081718182815F
:10443000938120E030E04AE753E40E941F02DC0150
:10444000CB01F80180839183A283B383FE01E55CF5
:10445000FE4F608171818281938120E030E040E8ED
:104460005FE30E947903882344F4FE01E75CFE4F7A
:1044700081E090E09183808364C0FE01E55CFE4FA3
:10448000608171818281938120E03FEF4FE757E4A3
:104490000E94190318160CF043C0FE01E15CFE4FA8
:1044A000608171818281938120E030E040E251E4BB
:1044B0000E941F02DC01CB018E01075C1E4FBC0174
:1044C000CD010E944900DC01CB01F801918380837A
:1044D0001FC0FE01E95CFE4F89E190E0918380837B
:1044E000FE01E95CFE4F808191810197F1F7FE01A9
:1044F000E95CFE4F91838083DE01A75CBE4FFE0125
:10450000E75CFE4F80819181019711969C938E9379
:10451000FE01E75CFE4F808191810097D1F627C0B4
:104520008E01075C1E4FFE01E55CFE4F60817181CC
:10453000828193810E944900DC01CB01F8019183C3
:104540008083DE01AB5CBE4FFE01E75CFE4F8081E5
:1045500091818D939C93FE01EB5CFE4F8081918154
:104560000197F1F7FE01EB5CFE4F9183808388E0B9
:104570000E94C60DFE01E859FD4F1082FE01E35C6A
:10458000FD4F8081843008F407CAFE01E35CFD4FD3
:1045900010820C945934FE01E35CFD4F10820C94A0
:1045A000FE2A8AE00E94610A0E94EE1187E391E0F0
:1045B0000E945F11FE01EF5CFE4F80E090E0AAE7F1
:1045C000B4E480839183A283B3838E01035D1E4F85
:1045D000FE01EF5CFE4F608171818281938120E05A
:1045E00030E04AE753E40E941F02DC01CB01F801EE
:1045F00080839183A283B383FE01E35DFE4F6081DC
:1046000071818281938120E030E040E85FE30E9485
:104610007903882344F4FE01E55DFE4F81E090E0DC
:104620009183808364C0FE01E35DFE4F60817181F0
:104630008281938120E03FEF4FE757E40E94190306
:1046400018160CF043C0FE01EF5CFE4F60817181D3
:104650008281938120E030E040E251E40E941F0219
:10466000DC01CB018E01055D1E4FBC01CD010E9416
:104670004900DC01CB01F801918380831FC0FE015A
:10468000E75DFE4F89E190E091838083FE01E75D65
:10469000FE4F808191810197F1F7FE01E75DFE4FAA
:1046A00091838083DE01A55DBE4FFE01E55DFE4F77
:1046B00080819181019711969C938E93FE01E55D17
:1046C000FE4F808191810097D1F627C08E01055D54
:1046D0001E4FFE01E35DFE4F6081718182819381F7
:1046E0000E944900DC01CB01F80191838083DE0147
:1046F000A95DBE4FFE01E55DFE4F808191818D93E6
:104700009C93FE01E95DFE4F808191810197F1F755
:10471000FE01E95DFE4F918380830E94A00CFE01A3
:10472000EA5CFD4F8083FE01E95CFD4F10827EC292
:104730008EE00E94C60DFE01ED5DFE4F80E090E030
:10474000A8E4B3E480839183A283B3838E01015EE6
:104750001E4FFE01ED5DFE4F60817181828193816C
:1047600020E030E04AE753E40E941F02DC01CB0165
:10477000F80180839183A283B383FE01E15EFE4F43
:10478000608171818281938120E030E040E85FE3C5
:104790000E947903882344F4FE01E35EFE4F81E02A
:1047A00090E09183808364C0FE01E15EFE4F6081F2
:1047B00071818281938120E03FEF4FE757E40E94AF
:1047C000190318160CF043C0FE01ED5DFE4F608129
:1047D00071818281938120E030E040E251E40E94C7
:1047E0001F02DC01CB018E01035E1E4FBC01CD0117
:1047F0000E944900DC01CB01F801918380831FC036
:10480000FE01E55EFE4F89E190E091838083FE0129
:10481000E55EFE4F808191810197F1F7FE01E55E33
:10482000FE4F91838083DE01A35EBE4FFE01E35EF7
:10483000FE4F80819181019711969C938E93FE018A
:10484000E35EFE4F808191810097D1F627C08E01F3
:10485000035E1E4FFE01E15EFE4F60817181828129
:1048600093810E944900DC01CB01F8019183808390
:10487000DE01A75EBE4FFE01E35EFE4F80819181A7
:104880008D939C93FE01E75EFE4F8081918101979D
:10489000F1F7FE01E75EFE4F918380838CE00E947A
:1048A000C60DFE01EB5EFE4F80E090E0AAE7B4E4A7
:1048B00080839183A283B3838E010F5E1E4FFE011E
:1048C000EB5EFE4F608171818281938120E030E058
:1048D0004AE753E40E941F02DC01CB01F801808308
:1048E0009183A283B383FE01EF5EFE4F60817181ED
:1048F0008281938120E030E040E85FE30E94790309
:10490000882344F4FE01E15FFE4F81E090E0918353
:10491000808364C0FE01EF5EFE4F60817181828101
:10492000938120E03FEF4FE757E40E9419031816E8
:104930000CF043C0FE01EB5EFE4F6081718182810D
:10494000938120E030E040E251E40E941F02DC014C
:10495000CB018E01015F1E4FBC01CD010E944900B9
:10496000DC01CB01F801918380831FC0FE01E35F6E
:10497000FE4F89E190E091838083FE01E35FFE4F6B
:10498000808191810197F1F7FE01E35FFE4F9183F2
:104990008083DE01A15FBE4FFE01E15FFE4F80819B
:1049A0009181019711969C938E93FE01E15FFE4FDA
:1049B000808191810097D1F627C08E01015F1E4F43
:1049C000FE01EF5EFE4F60817181828193810E94C2
:1049D0004900DC01CB01F80191838083DE01A55FF2
:1049E000BE4FFE01E15FFE4F808191818D939C93CC
:1049F000FE01E55FFE4F808191810197F1F7FE0195
:104A0000E55FFE4F918380830E94A00CFE01EA5C6B
:104A1000FD4F8083FE01EA5CFD4F80818A3008F003
:104A2000C8C0FE01EA5CFD4F8081882F90E00E94A3
:104A3000CB11FE01E95FFE4F80E090E0A8E4B3E413
:104A400080839183A283B3838E010D5F1E4FFE018D
:104A5000E95FFE4F608171818281938120E030E0C7
:104A60004AE753E40E941F02DC01CB01F801808376
:104A70009183A283B383FE01ED5FFE4F608171815C
:104A80008281938120E030E040E85FE30E94790377
:104A9000882344F4FE01EF5FFE4F81E090E09183B4
:104AA000808364C0FE01ED5FFE4F60817181828171
:104AB000938120E03FEF4FE757E40E941903181657
:104AC0000CF043C0FE01E95FFE4F6081718182817D
:104AD000938120E030E040E251E40E941F02DC01BB
:104AE000CB018E010F5F1E4FBC01CD010E9449001A
:104AF000DC01CB01F801918380831FC0FE01E150EE
:104B0000FF4F89E190E091838083FE01E150FF4FE8
:104B1000808191810197F1F7FE01E150FF4F918370
:104B20008083DE01AF5FBE4FFE01EF5FFE4F8081ED
:104B30009181019711969C938E93FE01EF5FFE4F3A
:104B4000808191810097D1F627C08E010F5F1E4FA3
:104B5000FE01ED5FFE4F60817181828193810E9431
:104B60004900DC01CB01F80191838083DE01A35071
:104B7000BF4FFE01EF5FFE4F808191818D939C932B
:104B8000FE01E350FF4F808191810197F1F7FE0113
:104B9000E350FF4F91838083FE01E95CFD4F8081EC
:104BA000982F965F20ED30E080E0692FA9010E94E8
:104BB000B211FE01EA5CFD4F8081282F30E040E019
:104BC00050E0BE01685C7D4FFE01E85CFD4F8081D6
:104BD0009181A281B381820F931FA41FB51FFB0196
:104BE00080839183A283B3838E01085C1D4FFE01F5
:104BF000E85CFD4F80819181A281B3812AE030E0A1
:104C000040E050E0BC01CD010E944D36DC01CB01FB
:104C1000F80180839183A283B383DE01A95CBD4F39
:104C2000FE01E95CFD4F80818F5F8C93FE01E95CA2
:104C3000FD4F8081843008F47BCD8E01085C1D4FD0
:104C4000FE01E85CFD4F80819181A281B3812AE061
:104C500030E040E050E0BC01CD010E946C36DA014A
:104C6000C901F80180839183A283B383FE01E15CD3
:104C7000FD4F8081882F90E001979E012C5A3D4F77
:104C8000880F991F880F991FF901E80FF91F2081DC
:104C9000318142815381FE01E85CFD4F8081918129
:104CA000A281B381281739074A075B0709F013C3AC
:104CB0008AE00E94610A0E94EE1182E491E00E9463
:104CC0005F11FE01E95CFD4F1082BAC28EE00E94C6
:104CD000C60DFE01E750FF4F80E090E0A8E4B3E48A
:104CE00080839183A283B3838E010B501F4FFE01FB
:104CF000E750FF4F608171818281938120E030E035
:104D00004AE753E40E941F02DC01CB01F8018083D3
:104D10009183A283B383FE01EB50FF4F60817181C9
:104D20008281938120E030E040E85FE30E947903D4
:104D3000882344F4FE01ED50FF4F81E090E0918321
:104D4000808364C0FE01EB50FF4F608171818281DE
:104D5000938120E03FEF4FE757E40E9419031816B4
:104D60000CF043C0FE01E750FF4F608171818281EA
:104D7000938120E030E040E251E40E941F02DC0118
:104D8000CB018E010D501F4FBC01CD010E94490087
:104D9000DC01CB01F801918380831FC0FE01EF503D
:104DA000FF4F89E190E091838083FE01EF50FF4F38
:104DB000808191810197F1F7FE01EF50FF4F9183C0
:104DC0008083DE01AD50BF4FFE01ED50FF4F80816B
:104DD0009181019711969C938E93FE01ED50FF4FA8
:104DE000808191810097D1F627C08E010D501F4F11
:104DF000FE01EB50FF4F60817181828193810E949F
:104E00004900DC01CB01F80191838083DE01A151CF
:104E1000BF4FFE01ED50FF4F808191818D939C9398
:104E2000FE01E151FF4F808191810197F1F7FE0171
:104E3000E151FF4F918380838CE00E94C60DFE01FB
:104E4000E551FF4F80E090E0AAEFB3E480839183C7
:104E5000A283B3838E0109511F4FFE01E551FF4F1D
:104E6000608171818281938120E030E04AE753E4E0
:104E70000E941F02DC01CB01F80180839183A28391
:104E8000B383FE01E951FF4F60817181828193817B
:104E900020E030E040E85FE30E947903882344F497
:104EA000FE01EB51FF4F81E090E09183808364C06D
:104EB000FE01E951FF4F608171818281938120E081
:104EC0003FEF4FE757E40E94190318160CF043C058
:104ED000FE01E551FF4F608171818281938120E065
:104EE00030E040E251E40E941F02DC01CB018E0160
:104EF0000B511F4FBC01CD010E944900DC01CB01C9
:104F0000F801918380831FC0FE01ED51FF4F89E1BD
:104F100090E091838083FE01ED51FF4F808191816C
:104F20000197F1F7FE01ED51FF4F91838083DE0180
:104F3000AB51BF4FFE01EB51FF4F80819181019733
:104F400011969C938E93FE01EB51FF4F80819181CE
:104F50000097D1F627C08E010B511F4FFE01E9517A
:104F6000FF4F60817181828193810E944900DC0141
:104F7000CB01F80191838083DE01AF51BF4FFE0169
:104F8000EB51FF4F808191818D939C93FE01EF51F6
:104F9000FF4F808191810197F1F7FE01EF51FF4FA3
:104FA000918380830E94A00CFE01EA5CFD4F808308
:104FB000FE01EA5CFD4F80818A3008F0C8C0FE0126
:104FC000EA5CFD4F8081882F90E00E94CB11FE01AA
:104FD000E352FF4F80E090E0A8E4B3E48083918344
:104FE000A283B3838E0107521F4FFE01E352FF4F8E
:104FF000608171818281938120E030E04AE753E44F
:105000000E941F02DC01CB01F80180839183A283FF
:10501000B383FE01E752FF4F6081718182819381EA
:1050200020E030E040E85FE30E947903882344F405
:10503000FE01E952FF4F81E090E09183808364C0DC
:10504000FE01E752FF4F608171818281938120E0F0
:105050003FEF4FE757E40E94190318160CF043C0C6
:10506000FE01E352FF4F608171818281938120E0D4
:1050700030E040E251E40E941F02DC01CB018E01CE
:1050800009521F4FBC01CD010E944900DC01CB0138
:10509000F801918380831FC0FE01EB52FF4F89E12D
:1050A00090E091838083FE01EB52FF4F80819181DC
:1050B0000197F1F7FE01EB52FF4F91838083DE01F0
:1050C000A952BF4FFE01E952FF4F808191810197A4
:1050D00011969C938E93FE01E952FF4F808191813E
:1050E0000097D1F627C08E0109521F4FFE01E752EB
:1050F000FF4F60817181828193810E944900DC01B0
:10510000CB01F80191838083DE01AD52BF4FFE01D8
:10511000E952FF4F808191818D939C93FE01ED5266
:10512000FF4F808191810197F1F7FE01ED52FF4F12
:1051300091838083FE01E95CFD4F8081982F965F0B
:1051400020ED30E080E0692FA9010E94B211FE013C
:10515000E15CFD4F8081882F90E08C010150104070
:10516000FE01E15CFD4F8081882F90E001979E0158
:105170002C5A3D4F880F991F880F991FF901E80F8E
:10518000F91F2081318142815381FE01EA5CFD4F8C
:105190008081882F90E0A0E0B0E0280F391F4A1FDF
:1051A0005B1FBE016C5A7D4FC801880F991F880F85
:1051B000991FFB01E80FF91F20833183428353833A
:1051C000FE01E15CFD4F8081882F90E08C01015051
:1051D0001040FE01E15CFD4F8081882F90E0019737
:1051E0009E012C5A3D4F880F991F880F991FF90176
:1051F000E80FF91F80819181A281B3812AE030E01C
:1052000040E050E0BC01CD010E944D369B01AC0155
:10521000BE016C5A7D4FC801880F991F880F991FD6
:10522000FB01E80FF91F2083318342835383DE01A2
:10523000A95CBD4FFE01E95CFD4F80818F5F8C93BF
:10524000FE01E95CFD4F8081843008F43FCDFE0112
:10525000E15CFD4F8081882F90E08C01015010406F
:10526000FE01E15CFD4F8081882F90E001979E0157
:105270002C5A3D4F880F991F880F991FF901E80F8D
:10528000F91F80819181A281B3812AE030E040E062
:1052900050E0BC01CD010E946C36DA01C9019C01CD
:1052A000AD01BE016C5A7D4FC801880F991F880F50
:1052B000991FFB01E80FF91F208331834283538339
:1052C000FE01E35CFD4F84E08083FE01E859FD4F61
:1052D00081E0808393C18AE00E94610A0E94EE11FE
:1052E0008DE491E00E945F11FE01E153FF4F80E0E9
:1052F00090E0AAEFB3E480839183A283B3838E010D
:1053000005531F4FFE01E153FF4F60817181828180
:10531000938120E030E04AE753E40E941F02DC0161
:10532000CB01F80180839183A283B383FE01E5530F
:10533000FF4F608171818281938120E030E040E8FD
:105340005FE30E947903882344F4FE01E753FF4F93
:1053500081E090E09183808364C0FE01E553FF4FBC
:10536000608171818281938120E03FEF4FE757E4B4
:105370000E94190318160CF043C0FE01E153FF4FC1
:10538000608171818281938120E030E040E251E4CC
:105390000E941F02DC01CB018E0107531F4FBC018D
:1053A000CD010E944900DC01CB01F801918380838B
:1053B0001FC0FE01E953FF4F89E190E09183808394
:1053C000FE01E953FF4F808191810197F1F7FE01C2
:1053D000E953FF4F91838083DE01A753BF4FFE0146
:1053E000E753FF4F80819181019711969C938E9393
:1053F000FE01E753FF4F808191810097D1F627C0CE
:105400008E0107531F4FFE01E553FF4F60817181ED
:10541000828193810E944900DC01CB01F8019183D4
:105420008083DE01AB53BF4FFE01E753FF4F808106
:1054300091818D939C93FE01EB53FF4F808191816D
:105440000197F1F7FE01EB53FF4F91838083DE015B
:10545000A35CBD4FFE01E35CFD4F80818F5F8C93A9
:10546000FE01E35CFD4F8081843009F0C7C086E017
:105470000E94610A0E94EE1188E591E00E945F118E
:10548000FE01EF53FF4F80E090E0AAEFB4E4808389
:105490009183A283B3838E0103541F4FFE01EF5308
:1054A000FF4F608171818281938120E030E04AE783
:1054B00053E40E941F02DC01CB01F8018083918339
:1054C000A283B383FE01E354FF4F60817181828127
:1054D000938120E030E040E85FE30E947903882375
:1054E00044F4FE01E554FF4F81E090E09183808316
:1054F00064C0FE01E354FF4F60817181828193811A
:1055000020E03FEF4FE757E40E94190318160CF014
:1055100043C0FE01EF53FF4F60817181828193810F
:1055200020E030E040E251E40E941F02DC01CB01A8
:105530008E0105541F4FBC01CD010E944900DC01C2
:10554000CB01F801918380831FC0FE01E754FF4F18
:1055500089E190E091838083FE01E754FF4F8081D1
:1055600091810197F1F7FE01E754FF4F918380830A
:10557000DE01A554BF4FFE01E554FF4F80819181AC
:10558000019711969C938E93FE01E554FF4F808105
:1055900091810097D1F627C08E0105541F4FFE015F
:1055A000E354FF4F60817181828193810E944900A1
:1055B000DC01CB01F80191838083DE01A954BF4F48
:1055C000FE01E554FF4F808191818D939C93FE01F4
:1055D000E954FF4F808191810197F1F7FE01E95471
:1055E000FF4F9183808388E00E94C60DFE01E35C3B
:1055F000FD4F1082FE01E859FD4F1082FE01E35C71
:10560000FD4F8081843010F40C94D122FE01E35CC4
:10561000FD4F10820C945934FE01EF5CFD4F8081E8
:10562000823011F00C9459348AE00E94610A0E9481
:10563000EE1128E631E080E062E0A9010E94B2119B
:10564000FE01ED54FF4F80E090E0AAE7B4E48083D0
:105650009183A283B3838E0101551F4FFE01ED5448
:10566000FF4F608171818281938120E030E04AE7C1
:1056700053E40E941F02DC01CB01F8018083918377
:10568000A283B383FE01E155FF4F60817181828166
:10569000938120E030E040E85FE30E9479038823B3
:1056A00044F4FE01E355FF4F81E090E09183808355
:1056B00064C0FE01E155FF4F608171818281938159
:1056C00020E03FEF4FE757E40E94190318160CF053
:1056D00043C0FE01ED54FF4F60817181828193814F
:1056E00020E030E040E251E40E941F02DC01CB01E7
:1056F0008E0103551F4FBC01CD010E944900DC0102
:10570000CB01F801918380831FC0FE01E555FF4F57
:1057100089E190E091838083FE01E555FF4F808110
:1057200091810197F1F7FE01E555FF4F9183808349
:10573000DE01A355BF4FFE01E355FF4F80819181EC
:10574000019711969C938E93FE01E355FF4F808144
:1057500091810097D1F627C08E0103551F4FFE019E
:10576000E155FF4F60817181828193810E944900E0
:10577000DC01CB01F80191838083DE01A755BF4F87
:10578000FE01E355FF4F808191818D939C93FE0133
:10579000E755FF4F808191810197F1F7FE01E755B1
:1057A000FF4F918380830E94EE1184E791E00E9475
:1057B0005F1125E831E081E060E0A9010E94B211AB
:1057C000FE01EB55FF4F80E090E0AAE7B4E4808350
:1057D0009183A283B3838E010F551F4FFE01EB55BA
:1057E000FF4F608171818281938120E030E04AE740
:1057F00053E40E941F02DC01CB01F80180839183F6
:10580000A283B383FE01EF55FF4F608171818281D6
:10581000938120E030E040E85FE30E947903882331
:1058200044F4FE01E156FF4F81E090E091838083D4
:1058300064C0FE01EF55FF4F6081718182819381C9
:1058400020E03FEF4FE757E40E94190318160CF0D1
:1058500043C0FE01EB55FF4F6081718182819381CE
:1058600020E030E040E251E40E941F02DC01CB0165
:105870008E0101561F4FBC01CD010E944900DC0181
:10588000CB01F801918380831FC0FE01E356FF4FD7
:1058900089E190E091838083FE01E356FF4F808190
:1058A00091810197F1F7FE01E356FF4F91838083C9
:1058B000DE01A156BF4FFE01E156FF4F808191816D
:1058C000019711969C938E93FE01E156FF4F8081C4
:1058D00091810097D1F627C08E0101561F4FFE011E
:1058E000EF55FF4F60817181828193810E94490051
:1058F000DC01CB01F80191838083DE01A556BF4F07
:10590000FE01E156FF4F808191818D939C93FE01B2
:10591000E556FF4F808191810197F1F7FE01E55631
:10592000FF4F918380830E94A00CFE01E25CFD4F3B
:105930008083FE01E25CFD4F8081282F30E0C95852
:10594000DD4F39832883C757D240C958DD4F88813E
:105950009981C757D2408230910509F41FC7C958B1
:10596000DD4FE881F981C757D240E330F10509F4F2
:1059700097C7C958DD4F28813981C757D240213098
:10598000310509F096C78AE00E94610A0E94EE1173
:105990008CE891E00E945F1129E931E081E060E04C
:1059A000A9010E94B211FE01E956FF4F80E090E08C
:1059B000AAE7B4E480839183A283B3838E010D565A
:1059C0001F4FFE01E956FF4F6081718182819381F3
:1059D00020E030E04AE753E40E941F02DC01CB01E3
:1059E000F80180839183A283B383FE01ED56FF4FBC
:1059F000608171818281938120E030E040E85FE343
:105A00000E947903882344F4FE01EF56FF4F81E0A2
:105A100090E09183808364C0FE01ED56FF4F60816A
:105A200071818281938120E03FEF4FE757E40E942C
:105A3000190318160CF043C0FE01E956FF4F6081B0
:105A400071818281938120E030E040E251E40E9444
:105A50001F02DC01CB018E010F561F4FBC01CD018F
:105A60000E944900DC01CB01F801918380831FC0B3
:105A7000FE01E157FF4F89E190E091838083FE01B1
:105A8000E157FF4F808191810197F1F7FE01E157C6
:105A9000FF4F91838083DE01AF56BF4FFE01EF566B
:105AA000FF4F80819181019711969C938E93FE0107
:105AB000EF56FF4F808191810097D1F627C08E016C
:105AC0000F561F4FFE01ED56FF4F6081718182819D
:105AD00093810E944900DC01CB01F801918380830E
